8=FIX.4.2|9=80|35=A|34=1|49=EQUITY-TRADER|52=20150826-12:57:54.806|56=NASDAQ|98=0|108=30|141=Y|10=191|8=FIX.4.2|9=62|35=0|34=2|49=EQUITY-TRADER|52=20150826-12:58:24.803|56=NASDAQ|10=100|