8=FIX.4.2|9=80|35=A|34=1|49=EQUITY-TRADER|52=20150824-02:18:35.859|56=NASDAQ|98=0|108=30|141=Y|10=192|8=FIX.4.2|9=144|35=D|34=2|49=EQUITY-TRADER|52=20150824-02:18:52.743|56=NASDAQ|11=EQUITY-TRADER-relll|21=1|38=12|40=2|44=0|54=1|55=AAPL|60=20150824-02:18:52.724|10=092|8=FIX.4.2|9=62|35=0|34=3|49=EQUITY-TRADER|52=20150824-02:19:22.830|56=NASDAQ|10=093|8=FIX.4.2|9=62|35=0|34=4|49=EQUITY-TRADER|52=20150824-02:19:52.837|56=NASDAQ|10=104|8=FIX.4.2|9=62|35=0|34=5|49=EQUITY-TRADER|52=20150824-02:20:22.829|56=NASDAQ|10=095|8=FIX.4.2|9=62|35=0|34=6|49=EQUITY-TRADER|52=20150824-02:20:52.836|56=NASDAQ|10=097|8=FIX.4.2|9=62|35=0|34=7|49=EQUITY-TRADER|52=20150824-02:21:22.834|56=NASDAQ|10=094|8=FIX.4.2|9=62|35=0|34=8|49=EQUITY-TRADER|52=20150824-02:21:52.831|56=NASDAQ|10=095|8=FIX.4.2|9=62|35=0|34=9|49=EQUITY-TRADER|52=20150824-02:22:22.830|56=NASDAQ|10=093|8=FIX.4.2|9=63|35=0|34=10|49=EQUITY-TRADER|52=20150824-02:22:52.831|56=NASDAQ|10=138|8=FIX.4.2|9=63|35=0|34=11|49=EQUITY-TRADER|52=20150824-02:23:22.831|56=NASDAQ|10=137|8=FIX.4.2|9=63|35=0|34=12|49=EQUITY-TRADER|52=20150824-02:23:52.831|56=NASDAQ|10=141|8=FIX.4.2|9=63|35=0|34=13|49=EQUITY-TRADER|52=20150824-02:24:22.831|56=NASDAQ|10=140|8=FIX.4.2|9=63|35=0|34=14|49=EQUITY-TRADER|52=20150824-02:24:52.832|56=NASDAQ|10=145|8=FIX.4.2|9=63|35=0|34=15|49=EQUITY-TRADER|52=20150824-02:25:22.832|56=NASDAQ|10=144|8=FIX.4.2|9=63|35=0|34=16|49=EQUITY-TRADER|52=20150824-02:25:52.832|56=NASDAQ|10=148|8=FIX.4.2|9=63|35=0|34=17|49=EQUITY-TRADER|52=20150824-02:26:22.847|56=NASDAQ|10=153|8=FIX.4.2|9=63|35=0|34=18|49=EQUITY-TRADER|52=20150824-02:26:53.833|56=NASDAQ|10=153|8=FIX.4.2|9=63|35=0|34=19|49=EQUITY-TRADER|52=20150824-02:27:23.838|56=NASDAQ|10=157|8=FIX.4.2|9=63|35=0|34=20|49=EQUITY-TRADER|52=20150824-02:27:53.834|56=NASDAQ|10=148|8=FIX.4.2|9=63|35=0|34=21|49=EQUITY-TRADER|52=20150824-02:28:23.834|56=NASDAQ|10=147|8=FIX.4.2|9=63|35=0|34=22|49=EQUITY-TRADER|52=20150824-02:28:53.844|56=NASDAQ|10=152|8=FIX.4.2|9=63|35=0|34=23|49=EQUITY-TRADER|52=20150824-02:29:23.846|56=NASDAQ|10=153|8=FIX.4.2|9=63|35=0|34=24|49=EQUITY-TRADER|52=20150824-02:29:53.840|56=NASDAQ|10=151|8=FIX.4.2|9=63|35=0|34=25|49=EQUITY-TRADER|52=20150824-02:30:23.835|56=NASDAQ|10=145|8=FIX.4.2|9=63|35=0|34=26|49=EQUITY-TRADER|52=20150824-02:30:53.837|56=NASDAQ|10=151|8=FIX.4.2|9=63|35=0|34=27|49=EQUITY-TRADER|52=20150824-02:31:23.845|56=NASDAQ|10=149|8=FIX.4.2|9=63|35=0|34=28|49=EQUITY-TRADER|52=20150824-02:31:53.837|56=NASDAQ|10=154|8=FIX.4.2|9=63|35=0|34=29|49=EQUITY-TRADER|52=20150824-02:32:23.839|56=NASDAQ|10=155|8=FIX.4.2|9=63|35=0|34=30|49=EQUITY-TRADER|52=20150824-02:32:53.837|56=NASDAQ|10=148|8=FIX.4.2|9=63|35=0|34=31|49=EQUITY-TRADER|52=20150824-02:33:23.837|56=NASDAQ|10=147|8=FIX.4.2|9=63|35=0|34=32|49=EQUITY-TRADER|52=20150824-02:33:53.837|56=NASDAQ|10=151|8=FIX.4.2|9=63|35=0|34=33|49=EQUITY-TRADER|52=20150824-02:34:23.842|56=NASDAQ|10=146|8=FIX.4.2|9=63|35=0|34=34|49=EQUITY-TRADER|52=20150824-02:34:53.847|56=NASDAQ|10=155|8=FIX.4.2|9=63|35=0|34=35|49=EQUITY-TRADER|52=20150824-02:35:23.844|56=NASDAQ|10=151|8=FIX.4.2|9=63|35=0|34=36|49=EQUITY-TRADER|52=20150824-02:35:53.838|56=NASDAQ|10=158|8=FIX.4.2|9=63|35=0|34=37|49=EQUITY-TRADER|52=20150824-02:36:23.842|56=NASDAQ|10=152|8=FIX.4.2|9=63|35=0|34=38|49=EQUITY-TRADER|52=20150824-02:36:53.840|56=NASDAQ|10=154|8=FIX.4.2|9=63|35=0|34=39|49=EQUITY-TRADER|52=20150824-02:37:23.853|56=NASDAQ|10=157|8=FIX.4.2|9=63|35=0|34=40|49=EQUITY-TRADER|52=20150824-02:37:54.840|56=NASDAQ|10=149|8=FIX.4.2|9=63|35=0|34=41|49=EQUITY-TRADER|52=20150824-02:38:24.841|56=NASDAQ|10=149|8=FIX.4.2|9=63|35=0|34=42|49=EQUITY-TRADER|52=20150824-02:38:54.841|56=NASDAQ|10=153|8=FIX.4.2|9=63|35=0|34=43|49=EQUITY-TRADER|52=20150824-02:39:24.841|56=NASDAQ|10=152|8=FIX.4.2|9=63|35=0|34=44|49=EQUITY-TRADER|52=20150824-02:39:54.841|56=NASDAQ|10=156|8=FIX.4.2|9=63|35=0|34=45|49=EQUITY-TRADER|52=20150824-02:40:24.841|56=NASDAQ|10=146|8=FIX.4.2|9=63|35=0|34=46|49=EQUITY-TRADER|52=20150824-02:40:54.842|56=NASDAQ|10=151|8=FIX.4.2|9=63|35=0|34=47|49=EQUITY-TRADER|52=20150824-02:41:24.842|56=NASDAQ|10=150|8=FIX.4.2|9=63|35=0|34=48|49=EQUITY-TRADER|52=20150824-02:41:54.857|56=NASDAQ|10=160|8=FIX.4.2|9=63|35=0|34=49|49=EQUITY-TRADER|52=20150824-02:42:25.843|56=NASDAQ|10=155|8=FIX.4.2|9=63|35=0|34=50|49=EQUITY-TRADER|52=20150824-02:42:55.843|56=NASDAQ|10=150|8=FIX.4.2|9=63|35=0|34=51|49=EQUITY-TRADER|52=20150824-02:43:25.854|56=NASDAQ|10=151|8=FIX.4.2|9=63|35=0|34=52|49=EQUITY-TRADER|52=20150824-02:43:55.848|56=NASDAQ|10=158|8=FIX.4.2|9=63|35=0|34=53|49=EQUITY-TRADER|52=20150824-02:44:25.844|56=NASDAQ|10=153|8=FIX.4.2|9=63|35=0|34=54|49=EQUITY-TRADER|52=20150824-02:44:55.844|56=NASDAQ|10=157|8=FIX.4.2|9=63|35=0|34=55|49=EQUITY-TRADER|52=20150824-02:45:25.844|56=NASDAQ|10=156|8=FIX.4.2|9=63|35=0|34=56|49=EQUITY-TRADER|52=20150824-02:45:55.850|56=NASDAQ|10=157|8=FIX.4.2|9=63|35=0|34=57|49=EQUITY-TRADER|52=20150824-02:46:25.845|56=NASDAQ|10=160|8=FIX.4.2|9=63|35=0|34=58|49=EQUITY-TRADER|52=20150824-02:46:55.846|56=NASDAQ|10=165|8=FIX.4.2|9=63|35=0|34=59|49=EQUITY-TRADER|52=20150824-02:47:25.846|56=NASDAQ|10=164|8=FIX.4.2|9=63|35=0|34=60|49=EQUITY-TRADER|52=20150824-02:47:55.856|56=NASDAQ|10=160|8=FIX.4.2|9=63|35=0|34=61|49=EQUITY-TRADER|52=20150824-02:48:25.850|56=NASDAQ|10=153|8=FIX.4.2|9=63|35=0|34=62|49=EQUITY-TRADER|52=20150824-02:48:55.847|56=NASDAQ|10=163|8=FIX.4.2|9=63|35=0|34=63|49=EQUITY-TRADER|52=20150824-02:49:25.847|56=NASDAQ|10=162|8=FIX.4.2|9=63|35=0|34=64|49=EQUITY-TRADER|52=20150824-02:49:55.847|56=NASDAQ|10=166|8=FIX.4.2|9=63|35=0|34=65|49=EQUITY-TRADER|52=20150824-02:50:25.857|56=NASDAQ|10=157|8=FIX.4.2|9=63|35=0|34=66|49=EQUITY-TRADER|52=20150824-02:50:55.848|56=NASDAQ|10=161|8=FIX.4.2|9=63|35=0|34=67|49=EQUITY-TRADER|52=20150824-02:51:25.855|56=NASDAQ|10=158|8=FIX.4.2|9=63|35=0|34=68|49=EQUITY-TRADER|52=20150824-02:51:55.853|56=NASDAQ|10=160|8=FIX.4.2|9=63|35=0|34=69|49=EQUITY-TRADER|52=20150824-02:52:25.849|56=NASDAQ|10=164|8=FIX.4.2|9=63|35=0|34=70|49=EQUITY-TRADER|52=20150824-02:52:55.849|56=NASDAQ|10=159|8=FIX.4.2|9=63|35=0|34=71|49=EQUITY-TRADER|52=20150824-02:53:25.849|56=NASDAQ|10=158|8=FIX.4.2|9=63|35=0|34=72|49=EQUITY-TRADER|52=20150824-02:53:55.850|56=NASDAQ|10=154|8=FIX.4.2|9=63|35=0|34=73|49=EQUITY-TRADER|52=20150824-02:54:25.851|56=NASDAQ|10=154|8=FIX.4.2|9=63|35=0|34=74|49=EQUITY-TRADER|52=20150824-02:54:55.865|56=NASDAQ|10=163|8=FIX.4.2|9=63|35=0|34=75|49=EQUITY-TRADER|52=20150824-02:55:26.850|56=NASDAQ|10=157|8=FIX.4.2|9=63|35=0|34=76|49=EQUITY-TRADER|52=20150824-02:55:56.855|56=NASDAQ|10=166|8=FIX.4.2|9=63|35=0|34=77|49=EQUITY-TRADER|52=20150824-02:56:26.851|56=NASDAQ|10=161|8=FIX.4.2|9=63|35=0|34=78|49=EQUITY-TRADER|52=20150824-02:56:56.852|56=NASDAQ|10=166|8=FIX.4.2|9=63|35=0|34=79|49=EQUITY-TRADER|52=20150824-02:57:26.855|56=NASDAQ|10=168|8=FIX.4.2|9=63|35=0|34=80|49=EQUITY-TRADER|52=20150824-02:57:56.852|56=NASDAQ|10=160|8=FIX.4.2|9=63|35=0|34=81|49=EQUITY-TRADER|52=20150824-02:58:26.852|56=NASDAQ|10=159|8=FIX.4.2|9=63|35=0|34=82|49=EQUITY-TRADER|52=20150824-02:58:56.852|56=NASDAQ|10=163|8=FIX.4.2|9=63|35=0|34=83|49=EQUITY-TRADER|52=20150824-02:59:26.853|56=NASDAQ|10=163|8=FIX.4.2|9=63|35=0|34=84|49=EQUITY-TRADER|52=20150824-02:59:56.853|56=NASDAQ|10=167|8=FIX.4.2|9=63|35=0|34=85|49=EQUITY-TRADER|52=20150824-03:00:26.854|56=NASDAQ|10=153|8=FIX.4.2|9=63|35=0|34=86|49=EQUITY-TRADER|52=20150824-03:00:56.863|56=NASDAQ|10=157|8=FIX.4.2|9=63|35=0|34=87|49=EQUITY-TRADER|52=20150824-03:01:26.855|56=NASDAQ|10=157|8=FIX.4.2|9=63|35=0|34=88|49=EQUITY-TRADER|52=20150824-03:01:56.855|56=NASDAQ|10=161|8=FIX.4.2|9=63|35=0|34=89|49=EQUITY-TRADER|52=20150824-03:02:26.855|56=NASDAQ|10=160|8=FIX.4.2|9=63|35=0|34=90|49=EQUITY-TRADER|52=20150824-03:02:56.855|56=NASDAQ|10=155|8=FIX.4.2|9=63|35=0|34=91|49=EQUITY-TRADER|52=20150824-03:03:26.865|56=NASDAQ|10=155|8=FIX.4.2|9=63|35=0|34=92|49=EQUITY-TRADER|52=20150824-03:03:57.856|56=NASDAQ|10=160|8=FIX.4.2|9=63|35=0|34=93|49=EQUITY-TRADER|52=20150824-03:04:27.871|56=NASDAQ|10=156|8=FIX.4.2|9=63|35=0|34=94|49=EQUITY-TRADER|52=20150824-03:04:58.856|56=NASDAQ|10=164|8=FIX.4.2|9=63|35=0|34=95|49=EQUITY-TRADER|52=20150824-03:05:28.861|56=NASDAQ|10=159|8=FIX.4.2|9=63|35=0|34=96|49=EQUITY-TRADER|52=20150824-03:05:58.872|56=NASDAQ|10=165|8=FIX.4.2|9=63|35=0|34=97|49=EQUITY-TRADER|52=20150824-03:06:29.858|56=NASDAQ|10=169|8=FIX.4.2|9=63|35=0|34=98|49=EQUITY-TRADER|52=20150824-03:06:59.859|56=NASDAQ|10=174|8=FIX.4.2|9=63|35=0|34=99|49=EQUITY-TRADER|52=20150824-03:07:29.859|56=NASDAQ|10=173|8=FIX.4.2|9=64|35=0|34=100|49=EQUITY-TRADER|52=20150824-03:07:59.858|56=NASDAQ|10=207|8=FIX.4.2|9=64|35=0|34=101|49=EQUITY-TRADER|52=20150824-03:08:29.859|56=NASDAQ|10=207|8=FIX.4.2|9=64|35=0|34=102|49=EQUITY-TRADER|52=20150824-03:08:59.859|56=NASDAQ|10=211|8=FIX.4.2|9=64|35=0|34=103|49=EQUITY-TRADER|52=20150824-03:09:29.859|56=NASDAQ|10=210|8=FIX.4.2|9=64|35=0|34=104|49=EQUITY-TRADER|52=20150824-03:09:59.860|56=NASDAQ|10=206|8=FIX.4.2|9=64|35=0|34=105|49=EQUITY-TRADER|52=20150824-03:10:29.860|56=NASDAQ|10=196|8=FIX.4.2|9=64|35=0|34=106|49=EQUITY-TRADER|52=20150824-03:10:59.861|56=NASDAQ|10=201|8=FIX.4.2|9=64|35=0|34=107|49=EQUITY-TRADER|52=20150824-03:11:29.874|56=NASDAQ|10=204|8=FIX.4.2|9=64|35=0|34=108|49=EQUITY-TRADER|52=20150824-03:11:59.873|56=NASDAQ|10=207|8=FIX.4.2|9=64|35=0|34=109|49=EQUITY-TRADER|52=20150824-03:12:29.872|56=NASDAQ|10=205|8=FIX.4.2|9=64|35=0|34=110|49=EQUITY-TRADER|52=20150824-03:13:00.862|56=NASDAQ|10=186|8=FIX.4.2|9=64|35=0|34=111|49=EQUITY-TRADER|52=20150824-03:13:30.863|56=NASDAQ|10=191|8=FIX.4.2|9=64|35=0|34=112|49=EQUITY-TRADER|52=20150824-03:14:00.874|56=NASDAQ|10=192|8=FIX.4.2|9=64|35=0|34=113|49=EQUITY-TRADER|52=20150824-03:14:30.869|56=NASDAQ|10=200|8=FIX.4.2|9=64|35=0|34=114|49=EQUITY-TRADER|52=20150824-03:15:00.875|56=NASDAQ|10=196|8=FIX.4.2|9=64|35=0|34=115|49=EQUITY-TRADER|52=20150824-03:15:31.868|56=NASDAQ|10=203|8=FIX.4.2|9=64|35=0|34=116|49=EQUITY-TRADER|52=20150824-03:16:01.865|56=NASDAQ|10=199|8=FIX.4.2|9=64|35=0|34=117|49=EQUITY-TRADER|52=20150824-03:16:31.876|56=NASDAQ|10=205|8=FIX.4.2|9=64|35=0|34=118|49=EQUITY-TRADER|52=20150824-03:17:01.869|56=NASDAQ|10=206|8=FIX.4.2|9=64|35=0|34=119|49=EQUITY-TRADER|52=20150824-03:17:31.871|56=NASDAQ|10=203|8=FIX.4.2|9=64|35=0|34=120|49=EQUITY-TRADER|52=20150824-03:18:01.865|56=NASDAQ|10=196|8=FIX.4.2|9=64|35=0|34=121|49=EQUITY-TRADER|52=20150824-03:18:31.879|56=NASDAQ|10=205|8=FIX.4.2|9=64|35=0|34=122|49=EQUITY-TRADER|52=20150824-03:19:01.873|56=NASDAQ|10=198|8=FIX.4.2|9=64|35=0|34=123|49=EQUITY-TRADER|52=20150824-03:19:31.865|56=NASDAQ|10=203|8=FIX.4.2|9=64|35=0|34=124|49=EQUITY-TRADER|52=20150824-03:20:01.870|56=NASDAQ|10=189|8=FIX.4.2|9=64|35=0|34=125|49=EQUITY-TRADER|52=20150824-03:20:31.879|56=NASDAQ|10=202|8=FIX.4.2|9=64|35=0|34=126|49=EQUITY-TRADER|52=20150824-03:21:02.876|56=NASDAQ|10=199|8=FIX.4.2|9=64|35=0|34=127|49=EQUITY-TRADER|52=20150824-03:21:32.877|56=NASDAQ|10=204|8=FIX.4.2|9=64|35=0|34=128|49=EQUITY-TRADER|52=20150824-03:22:02.868|56=NASDAQ|10=203|8=FIX.4.2|9=64|35=0|34=129|49=EQUITY-TRADER|52=20150824-03:22:32.878|56=NASDAQ|10=208|8=FIX.4.2|9=64|35=0|34=130|49=EQUITY-TRADER|52=20150824-03:23:02.882|56=NASDAQ|10=193|8=FIX.4.2|9=64|35=0|34=131|49=EQUITY-TRADER|52=20150824-03:23:33.870|56=NASDAQ|10=195|8=FIX.4.2|9=64|35=0|34=132|49=EQUITY-TRADER|52=20150824-03:24:03.870|56=NASDAQ|10=194|8=FIX.4.2|9=146|35=D|34=133|49=EQUITY-TRADER|52=20150824-03:24:19.140|56=NASDAQ|11=EQUITY-TRADER-relll|21=1|38=12|40=2|44=0|54=1|55=AAPL|60=20150824-03:24:19.140|10=180|8=FIX.4.2|9=64|35=0|34=134|49=EQUITY-TRADER|52=20150824-03:24:49.881|56=NASDAQ|10=208|8=FIX.4.2|9=64|35=0|34=135|49=EQUITY-TRADER|52=20150824-03:25:19.877|56=NASDAQ|10=212|8=FIX.4.2|9=64|35=0|34=136|49=EQUITY-TRADER|52=20150824-03:25:49.876|56=NASDAQ|10=215|8=FIX.4.2|9=64|35=0|34=137|49=EQUITY-TRADER|52=20150824-03:26:19.878|56=NASDAQ|10=216|8=FIX.4.2|9=64|35=0|34=138|49=EQUITY-TRADER|52=20150824-03:26:49.882|56=NASDAQ|10=215|8=FIX.4.2|9=64|35=0|34=139|49=EQUITY-TRADER|52=20150824-03:27:20.873|56=NASDAQ|10=206|8=FIX.4.2|9=64|35=0|34=140|49=EQUITY-TRADER|52=20150824-03:27:50.885|56=NASDAQ|10=204|8=FIX.4.2|9=64|35=0|34=141|49=EQUITY-TRADER|52=20150824-03:28:20.878|56=NASDAQ|10=205|8=FIX.4.2|9=64|35=0|34=142|49=EQUITY-TRADER|52=20150824-03:28:50.878|56=NASDAQ|10=209|8=FIX.4.2|9=64|35=0|34=143|49=EQUITY-TRADER|52=20150824-03:29:20.872|56=NASDAQ|10=202|8=FIX.4.2|9=64|35=0|34=144|49=EQUITY-TRADER|52=20150824-03:29:50.872|56=NASDAQ|10=206|8=FIX.4.2|9=64|35=0|34=145|49=EQUITY-TRADER|52=20150824-03:30:20.874|56=NASDAQ|10=198|8=FIX.4.2|9=64|35=0|34=146|49=EQUITY-TRADER|52=20150824-03:30:50.884|56=NASDAQ|10=203|8=FIX.4.2|9=64|35=0|34=147|49=EQUITY-TRADER|52=20150824-03:31:20.881|56=NASDAQ|10=199|8=FIX.4.2|9=64|35=0|34=148|49=EQUITY-TRADER|52=20150824-03:31:50.885|56=NASDAQ|10=207|8=FIX.4.2|9=64|35=0|34=149|49=EQUITY-TRADER|52=20150824-03:32:20.884|56=NASDAQ|10=205|8=FIX.4.2|9=64|35=0|34=150|49=EQUITY-TRADER|52=20150824-03:32:50.877|56=NASDAQ|10=202|8=FIX.4.2|9=64|35=0|34=151|49=EQUITY-TRADER|52=20150824-03:33:20.879|56=NASDAQ|10=203|8=FIX.4.2|9=64|35=0|34=152|49=EQUITY-TRADER|52=20150824-03:33:50.888|56=NASDAQ|10=207|8=FIX.4.2|9=64|35=0|34=153|49=EQUITY-TRADER|52=20150824-03:34:20.889|56=NASDAQ|10=207|8=FIX.4.2|9=64|35=0|34=154|49=EQUITY-TRADER|52=20150824-03:34:50.889|56=NASDAQ|10=211|8=FIX.4.2|9=64|35=0|34=155|49=EQUITY-TRADER|52=20150824-03:35:21.887|56=NASDAQ|10=209|8=FIX.4.2|9=64|35=0|34=156|49=EQUITY-TRADER|52=20150824-03:35:51.878|56=NASDAQ|10=213|8=FIX.4.2|9=64|35=0|34=157|49=EQUITY-TRADER|52=20150824-03:36:21.890|56=NASDAQ|10=206|8=FIX.4.2|9=64|35=0|34=158|49=EQUITY-TRADER|52=20150824-03:36:52.876|56=NASDAQ|10=215|8=FIX.4.2|9=64|35=0|34=159|49=EQUITY-TRADER|52=20150824-03:37:22.887|56=NASDAQ|10=216|8=FIX.4.2|9=64|35=0|34=160|49=EQUITY-TRADER|52=20150824-03:37:52.882|56=NASDAQ|10=206|