8=FIX.4.2|9=80|35=A|34=1|49=EQUITY-TRADER|52=20150826-01:35:46.161|56=NASDAQ|98=0|108=30|141=Y|10=180|8=FIX.4.2|9=62|35=0|34=2|49=EQUITY-TRADER|52=20150826-01:36:17.072|56=NASDAQ|10=094|8=FIX.4.2|9=62|35=0|34=3|49=EQUITY-TRADER|52=20150826-01:36:47.067|56=NASDAQ|10=102|8=FIX.4.2|9=62|35=0|34=4|49=EQUITY-TRADER|52=20150826-01:37:17.060|56=NASDAQ|10=094|8=FIX.4.2|9=62|35=0|34=5|49=EQUITY-TRADER|52=20150826-01:37:47.061|56=NASDAQ|10=099|8=FIX.4.2|9=62|35=0|34=6|49=EQUITY-TRADER|52=20150826-01:38:17.067|56=NASDAQ|10=104|8=FIX.4.2|9=62|35=0|34=7|49=EQUITY-TRADER|52=20150826-01:38:47.071|56=NASDAQ|10=103|8=FIX.4.2|9=62|35=0|34=8|49=EQUITY-TRADER|52=20150826-01:39:17.063|56=NASDAQ|10=103|8=FIX.4.2|9=62|35=0|34=9|49=EQUITY-TRADER|52=20150826-01:39:47.074|56=NASDAQ|10=109|8=FIX.4.2|9=63|35=0|34=10|49=EQUITY-TRADER|52=20150826-01:40:17.077|56=NASDAQ|10=142|8=FIX.4.2|9=63|35=0|34=11|49=EQUITY-TRADER|52=20150826-01:40:47.079|56=NASDAQ|10=148|8=FIX.4.2|9=63|35=0|34=12|49=EQUITY-TRADER|52=20150826-01:41:17.071|56=NASDAQ|10=139|8=FIX.4.2|9=63|35=0|34=13|49=EQUITY-TRADER|52=20150826-01:41:47.080|56=NASDAQ|10=143|8=FIX.4.2|9=63|35=0|34=14|49=EQUITY-TRADER|52=20150826-01:42:17.078|56=NASDAQ|10=149|8=FIX.4.2|9=63|35=0|34=15|49=EQUITY-TRADER|52=20150826-01:42:47.073|56=NASDAQ|10=148|8=FIX.4.2|9=63|35=0|34=16|49=EQUITY-TRADER|52=20150826-01:43:17.072|56=NASDAQ|10=146|8=FIX.4.2|9=63|35=0|34=17|49=EQUITY-TRADER|52=20150826-01:43:47.073|56=NASDAQ|10=151|8=FIX.4.2|9=63|35=0|34=18|49=EQUITY-TRADER|52=20150826-01:44:17.078|56=NASDAQ|10=155|8=FIX.4.2|9=63|35=0|34=19|49=EQUITY-TRADER|52=20150826-01:44:47.087|56=NASDAQ|10=159|8=FIX.4.2|9=63|35=0|34=20|49=EQUITY-TRADER|52=20150826-01:45:17.088|56=NASDAQ|10=150|8=FIX.4.2|9=63|35=0|34=21|49=EQUITY-TRADER|52=20150826-01:45:47.086|56=NASDAQ|10=152|8=FIX.4.2|9=63|35=0|34=22|49=EQUITY-TRADER|52=20150826-01:46:17.086|56=NASDAQ|10=151|8=FIX.4.2|9=63|35=0|34=23|49=EQUITY-TRADER|52=20150826-01:46:47.080|56=NASDAQ|10=149|8=FIX.4.2|9=63|35=0|34=24|49=EQUITY-TRADER|52=20150826-01:47:17.094|56=NASDAQ|10=153|8=FIX.4.2|9=63|35=0|34=25|49=EQUITY-TRADER|52=20150826-01:47:47.095|56=NASDAQ|10=158|8=FIX.4.2|9=63|35=0|34=26|49=EQUITY-TRADER|52=20150826-01:48:17.090|56=NASDAQ|10=152|8=FIX.4.2|9=63|35=0|34=27|49=EQUITY-TRADER|52=20150826-01:48:47.082|56=NASDAQ|10=157|8=FIX.4.2|9=63|35=0|34=28|49=EQUITY-TRADER|52=20150826-01:49:17.090|56=NASDAQ|10=155|8=FIX.4.2|9=63|35=0|34=29|49=EQUITY-TRADER|52=20150826-01:49:47.095|56=NASDAQ|10=164|8=FIX.4.2|9=63|35=0|34=30|49=EQUITY-TRADER|52=20150826-01:50:17.093|56=NASDAQ|10=143|8=FIX.4.2|9=63|35=0|34=31|49=EQUITY-TRADER|52=20150826-01:50:47.100|56=NASDAQ|10=136|8=FIX.4.2|9=63|35=0|34=32|49=EQUITY-TRADER|52=20150826-01:51:17.099|56=NASDAQ|10=152|8=FIX.4.2|9=63|35=0|34=33|49=EQUITY-TRADER|52=20150826-01:51:47.102|56=NASDAQ|10=141|8=FIX.4.2|9=63|35=0|34=34|49=EQUITY-TRADER|52=20150826-01:52:17.105|56=NASDAQ|10=143|8=FIX.4.2|9=63|35=0|34=35|49=EQUITY-TRADER|52=20150826-01:52:47.096|56=NASDAQ|10=156|8=FIX.4.2|9=63|35=0|34=36|49=EQUITY-TRADER|52=20150826-01:53:17.093|56=NASDAQ|10=152|8=FIX.4.2|9=63|35=0|34=37|49=EQUITY-TRADER|52=20150826-01:53:47.104|56=NASDAQ|10=149|8=FIX.4.2|9=63|35=0|34=38|49=EQUITY-TRADER|52=20150826-01:54:17.105|56=NASDAQ|10=149|8=FIX.4.2|9=63|35=0|34=39|49=EQUITY-TRADER|52=20150826-01:54:47.103|56=NASDAQ|10=151|8=FIX.4.2|9=63|35=0|34=40|49=EQUITY-TRADER|52=20150826-01:55:17.098|56=NASDAQ|10=154|8=FIX.4.2|9=63|35=0|34=41|49=EQUITY-TRADER|52=20150826-01:55:47.104|56=NASDAQ|10=146|8=FIX.4.2|9=63|35=0|34=42|49=EQUITY-TRADER|52=20150826-01:56:17.099|56=NASDAQ|10=158|8=FIX.4.2|9=63|35=0|34=43|49=EQUITY-TRADER|52=20150826-01:56:47.108|56=NASDAQ|10=153|8=FIX.4.2|9=63|35=0|34=44|49=EQUITY-TRADER|52=20150826-01:57:17.104|56=NASDAQ|10=148|8=FIX.4.2|9=63|35=0|34=45|49=EQUITY-TRADER|52=20150826-01:57:47.113|56=NASDAQ|10=152|8=FIX.4.2|9=63|35=0|34=46|49=EQUITY-TRADER|52=20150826-01:58:17.117|56=NASDAQ|10=155|8=FIX.4.2|9=63|35=0|34=47|49=EQUITY-TRADER|52=20150826-01:58:47.117|56=NASDAQ|10=159|8=FIX.4.2|9=63|35=0|34=48|49=EQUITY-TRADER|52=20150826-01:59:17.117|56=NASDAQ|10=158|8=FIX.4.2|9=63|35=0|34=49|49=EQUITY-TRADER|52=20150826-01:59:47.116|56=NASDAQ|10=161|8=FIX.4.2|9=63|35=0|34=50|49=EQUITY-TRADER|52=20150826-02:00:17.109|56=NASDAQ|10=139|8=FIX.4.2|9=63|35=0|34=51|49=EQUITY-TRADER|52=20150826-02:00:47.117|56=NASDAQ|10=142|8=FIX.4.2|9=63|35=0|34=52|49=EQUITY-TRADER|52=20150826-02:01:17.109|56=NASDAQ|10=142|8=FIX.4.2|9=63|35=0|34=53|49=EQUITY-TRADER|52=20150826-02:01:47.115|56=NASDAQ|10=143|8=FIX.4.2|9=63|35=0|34=54|49=EQUITY-TRADER|52=20150826-02:02:17.121|56=NASDAQ|10=139|8=FIX.4.2|9=63|35=0|34=55|49=EQUITY-TRADER|52=20150826-02:02:47.116|56=NASDAQ|10=147|8=FIX.4.2|9=63|35=0|34=56|49=EQUITY-TRADER|52=20150826-02:03:17.121|56=NASDAQ|10=142|8=FIX.4.2|9=63|35=0|34=57|49=EQUITY-TRADER|52=20150826-02:03:47.129|56=NASDAQ|10=154|8=FIX.4.2|9=63|35=0|34=58|49=EQUITY-TRADER|52=20150826-02:04:17.123|56=NASDAQ|10=147|8=FIX.4.2|9=63|35=0|34=59|49=EQUITY-TRADER|52=20150826-02:04:47.126|56=NASDAQ|10=154|8=FIX.4.2|9=63|35=0|34=60|49=EQUITY-TRADER|52=20150826-02:05:17.120|56=NASDAQ|10=138|8=FIX.4.2|9=63|35=0|34=61|49=EQUITY-TRADER|52=20150826-02:05:47.127|56=NASDAQ|10=149|8=FIX.4.2|9=63|35=0|34=62|49=EQUITY-TRADER|52=20150826-02:06:17.118|56=NASDAQ|10=148|8=FIX.4.2|9=63|35=0|34=63|49=EQUITY-TRADER|52=20150826-02:06:47.131|56=NASDAQ|10=147|8=FIX.4.2|9=63|35=0|34=64|49=EQUITY-TRADER|52=20150826-02:07:17.129|56=NASDAQ|10=153|8=FIX.4.2|9=63|35=0|34=65|49=EQUITY-TRADER|52=20150826-02:07:47.135|56=NASDAQ|10=154|8=FIX.4.2|9=63|35=0|34=66|49=EQUITY-TRADER|52=20150826-02:08:18.123|56=NASDAQ|10=151|8=FIX.4.2|9=63|35=0|34=67|49=EQUITY-TRADER|52=20150826-02:08:48.136|56=NASDAQ|10=159|8=FIX.4.2|9=63|35=0|34=68|49=EQUITY-TRADER|52=20150826-02:09:19.139|56=NASDAQ|10=162|8=FIX.4.2|9=63|35=0|34=69|49=EQUITY-TRADER|52=20150826-02:09:49.131|56=NASDAQ|10=158|8=FIX.4.2|9=63|35=0|34=70|49=EQUITY-TRADER|52=20150826-02:10:19.137|56=NASDAQ|10=145|8=FIX.4.2|9=63|35=0|34=71|49=EQUITY-TRADER|52=20150826-02:10:49.128|56=NASDAQ|10=149|8=FIX.4.2|9=63|35=0|34=72|49=EQUITY-TRADER|52=20150826-02:11:19.132|56=NASDAQ|10=143|8=FIX.4.2|9=63|35=0|34=73|49=EQUITY-TRADER|52=20150826-02:11:49.139|56=NASDAQ|10=154|8=FIX.4.2|9=63|35=0|34=74|49=EQUITY-TRADER|52=20150826-02:12:19.131|56=NASDAQ|10=145|8=FIX.4.2|9=63|35=0|34=75|49=EQUITY-TRADER|52=20150826-02:12:49.147|56=NASDAQ|10=156|8=FIX.4.2|9=63|35=0|34=76|49=EQUITY-TRADER|52=20150826-02:13:19.138|56=NASDAQ|10=155|8=FIX.4.2|9=63|35=0|34=77|49=EQUITY-TRADER|52=20150826-02:13:49.137|56=NASDAQ|10=158|8=FIX.4.2|9=63|35=0|34=78|49=EQUITY-TRADER|52=20150826-02:14:19.142|56=NASDAQ|10=153|8=FIX.4.2|9=63|35=0|34=79|49=EQUITY-TRADER|52=20150826-02:14:49.142|56=NASDAQ|10=157|8=FIX.4.2|9=63|35=0|34=80|49=EQUITY-TRADER|52=20150826-02:15:19.147|56=NASDAQ|10=152|8=FIX.4.2|9=63|35=0|34=81|49=EQUITY-TRADER|52=20150826-02:15:49.151|56=NASDAQ|10=151|8=FIX.4.2|9=63|35=0|34=82|49=EQUITY-TRADER|52=20150826-02:16:20.154|56=NASDAQ|10=145|8=FIX.4.2|9=63|35=0|34=83|49=EQUITY-TRADER|52=20150826-02:16:50.147|56=NASDAQ|10=151|8=FIX.4.2|9=63|35=0|34=84|49=EQUITY-TRADER|52=20150826-02:17:20.142|56=NASDAQ|10=145|8=FIX.4.2|9=63|35=0|34=85|49=EQUITY-TRADER|52=20150826-02:17:50.150|56=NASDAQ|10=148|8=FIX.4.2|9=63|35=0|34=86|49=EQUITY-TRADER|52=20150826-02:18:20.157|56=NASDAQ|10=154|8=FIX.4.2|9=63|35=0|34=87|49=EQUITY-TRADER|52=20150826-02:18:51.146|56=NASDAQ|10=157|8=FIX.4.2|9=63|35=0|34=88|49=EQUITY-TRADER|52=20150826-02:19:21.158|56=NASDAQ|10=159|8=FIX.4.2|9=63|35=0|34=89|49=EQUITY-TRADER|52=20150826-02:19:52.158|56=NASDAQ|10=164|8=FIX.4.2|9=63|35=0|34=90|49=EQUITY-TRADER|52=20150826-02:20:22.149|56=NASDAQ|10=145|8=FIX.4.2|9=63|35=0|34=91|49=EQUITY-TRADER|52=20150826-02:20:52.160|56=NASDAQ|10=142|8=FIX.4.2|9=63|35=0|34=92|49=EQUITY-TRADER|52=20150826-02:21:22.158|56=NASDAQ|10=148|8=FIX.4.2|9=63|35=0|34=93|49=EQUITY-TRADER|52=20150826-02:21:52.159|56=NASDAQ|10=153|8=FIX.4.2|9=63|35=0|34=94|49=EQUITY-TRADER|52=20150826-02:22:22.161|56=NASDAQ|10=145|8=FIX.4.2|9=63|35=0|34=95|49=EQUITY-TRADER|52=20150826-02:22:52.154|56=NASDAQ|10=151|8=FIX.4.2|9=63|35=0|34=96|49=EQUITY-TRADER|52=20150826-02:23:22.159|56=NASDAQ|10=155|8=FIX.4.2|9=63|35=0|34=97|49=EQUITY-TRADER|52=20150826-02:23:52.161|56=NASDAQ|10=152|8=FIX.4.2|9=63|35=0|34=98|49=EQUITY-TRADER|52=20150826-02:24:22.166|56=NASDAQ|10=156|8=FIX.4.2|9=63|35=0|34=99|49=EQUITY-TRADER|52=20150826-02:24:52.169|56=NASDAQ|10=163|8=FIX.4.2|9=64|35=0|34=100|49=EQUITY-TRADER|52=20150826-02:25:22.163|56=NASDAQ|10=187|8=FIX.4.2|9=64|35=0|34=101|49=EQUITY-TRADER|52=20150826-02:25:52.164|56=NASDAQ|10=192|8=FIX.4.2|9=64|35=0|34=102|49=EQUITY-TRADER|52=20150826-02:26:22.170|56=NASDAQ|10=188|8=FIX.4.2|9=64|35=0|34=103|49=EQUITY-TRADER|52=20150826-02:26:52.174|56=NASDAQ|10=196|8=FIX.4.2|9=64|35=0|34=104|49=EQUITY-TRADER|52=20150826-02:27:23.177|56=NASDAQ|10=199|8=FIX.4.2|9=64|35=0|34=105|49=EQUITY-TRADER|52=20150826-02:27:54.164|56=NASDAQ|10=200|8=FIX.4.2|9=64|35=0|34=106|49=EQUITY-TRADER|52=20150826-02:28:24.177|56=NASDAQ|10=203|8=FIX.4.2|9=64|35=0|34=107|49=EQUITY-TRADER|52=20150826-02:28:54.172|56=NASDAQ|10=202|8=FIX.4.2|9=64|35=0|34=108|49=EQUITY-TRADER|52=20150826-02:29:24.179|56=NASDAQ|10=208|8=FIX.4.2|9=64|35=0|34=109|49=EQUITY-TRADER|52=20150826-02:29:54.174|56=NASDAQ|10=207|8=FIX.4.2|9=64|35=0|34=110|49=EQUITY-TRADER|52=20150826-02:30:24.170|56=NASDAQ|10=184|8=FIX.4.2|9=64|35=0|34=111|49=EQUITY-TRADER|52=20150826-02:30:54.183|56=NASDAQ|10=192|8=FIX.4.2|9=64|35=0|34=112|49=EQUITY-TRADER|52=20150826-02:31:24.184|56=NASDAQ|10=192|8=FIX.4.2|9=64|35=0|34=113|49=EQUITY-TRADER|52=20150826-02:31:54.180|56=NASDAQ|10=192|8=FIX.4.2|9=64|35=0|34=114|49=EQUITY-TRADER|52=20150826-02:32:24.188|56=NASDAQ|10=199|8=FIX.4.2|9=64|35=0|34=115|49=EQUITY-TRADER|52=20150826-02:32:54.185|56=NASDAQ|10=200|8=FIX.4.2|9=64|35=0|34=116|49=EQUITY-TRADER|52=20150826-02:33:24.179|56=NASDAQ|10=202|8=FIX.4.2|9=64|35=0|34=117|49=EQUITY-TRADER|52=20150826-02:33:54.177|56=NASDAQ|10=204|8=FIX.4.2|9=64|35=0|34=118|49=EQUITY-TRADER|52=20150826-02:34:24.184|56=NASDAQ|10=201|8=FIX.4.2|9=64|35=0|34=119|49=EQUITY-TRADER|52=20150826-02:34:54.185|56=NASDAQ|10=206|8=FIX.4.2|9=64|35=0|34=120|49=EQUITY-TRADER|52=20150826-02:35:24.181|56=NASDAQ|10=192|8=FIX.4.2|9=64|35=0|34=121|49=EQUITY-TRADER|52=20150826-02:35:54.191|56=NASDAQ|10=197|8=FIX.4.2|9=64|35=0|34=122|49=EQUITY-TRADER|52=20150826-02:36:25.181|56=NASDAQ|10=196|8=FIX.4.2|9=64|35=0|34=123|49=EQUITY-TRADER|52=20150826-02:36:55.183|56=NASDAQ|10=202|8=FIX.4.2|9=64|35=0|34=124|49=EQUITY-TRADER|52=20150826-02:37:25.191|56=NASDAQ|10=200|8=FIX.4.2|9=64|35=0|34=125|49=EQUITY-TRADER|52=20150826-02:37:55.185|56=NASDAQ|10=207|8=FIX.4.2|9=64|35=0|34=126|49=EQUITY-TRADER|52=20150826-02:38:25.186|56=NASDAQ|10=207|8=FIX.4.2|9=64|35=0|34=127|49=EQUITY-TRADER|52=20150826-02:38:55.198|56=NASDAQ|10=214|8=FIX.4.2|9=64|35=0|34=128|49=EQUITY-TRADER|52=20150826-02:39:25.196|56=NASDAQ|10=211|8=FIX.4.2|9=64|35=0|34=129|49=EQUITY-TRADER|52=20150826-02:39:55.189|56=NASDAQ|10=217|