8=FIX.4.2|9=80|35=A|34=1|49=EQUITY-TRADER|52=20150826-11:08:13.178|56=NASDAQ|98=0|108=30|141=Y|10=183|8=FIX.4.2|9=62|35=0|34=2|49=EQUITY-TRADER|52=20150826-11:08:43.357|56=NASDAQ|10=099|8=FIX.4.2|9=62|35=0|34=3|49=EQUITY-TRADER|52=20150826-11:09:13.352|56=NASDAQ|10=093|8=FIX.4.2|9=62|35=0|34=4|49=EQUITY-TRADER|52=20150826-11:09:43.368|56=NASDAQ|10=104|8=FIX.4.2|9=62|35=0|34=5|49=EQUITY-TRADER|52=20150826-11:10:13.360|56=NASDAQ|10=086|8=FIX.4.2|9=62|35=0|34=6|49=EQUITY-TRADER|52=20150826-11:10:43.362|56=NASDAQ|10=092|8=FIX.4.2|9=62|35=0|34=7|49=EQUITY-TRADER|52=20150826-11:11:13.364|56=NASDAQ|10=093|8=FIX.4.2|9=62|35=0|34=8|49=EQUITY-TRADER|52=20150826-11:11:43.371|56=NASDAQ|10=095|8=FIX.4.2|9=62|35=0|34=9|49=EQUITY-TRADER|52=20150826-11:12:13.371|56=NASDAQ|10=094|8=FIX.4.2|9=63|35=0|34=10|49=EQUITY-TRADER|52=20150826-11:12:43.365|56=NASDAQ|10=141|8=FIX.4.2|9=63|35=0|34=11|49=EQUITY-TRADER|52=20150826-11:13:13.369|56=NASDAQ|10=144|8=FIX.4.2|9=63|35=0|34=12|49=EQUITY-TRADER|52=20150826-11:13:43.371|56=NASDAQ|10=141|8=FIX.4.2|9=63|35=0|34=13|49=EQUITY-TRADER|52=20150826-11:14:13.375|56=NASDAQ|10=144|8=FIX.4.2|9=63|35=0|34=14|49=EQUITY-TRADER|52=20150826-11:14:43.376|56=NASDAQ|10=149|8=FIX.4.2|9=145|35=D|34=15|49=EQUITY-TRADER|52=20150826-11:14:51.642|56=NASDAQ|11=EQUITY-TRADER-0|21=1|38=9|40=2|44=106.18|54=1|55=AAPL|60=20150826-11:14:51.626|10=115|8=FIX.4.2|9=63|35=0|34=16|49=EQUITY-TRADER|52=20150826-11:15:22.168|56=NASDAQ|10=148|8=FIX.4.2|9=63|35=0|34=17|49=EQUITY-TRADER|52=20150826-11:15:52.163|56=NASDAQ|10=147|8=FIX.4.2|9=63|35=0|34=18|49=EQUITY-TRADER|52=20150826-11:16:22.164|56=NASDAQ|10=147|8=FIX.4.2|9=63|35=0|34=19|49=EQUITY-TRADER|52=20150826-11:16:52.161|56=NASDAQ|10=148|8=FIX.4.2|9=63|35=0|34=20|49=EQUITY-TRADER|52=20150826-11:17:22.161|56=NASDAQ|10=138|8=FIX.4.2|9=63|35=0|34=21|49=EQUITY-TRADER|52=20150826-11:17:52.165|56=NASDAQ|10=146|8=FIX.4.2|9=63|35=0|34=22|49=EQUITY-TRADER|52=20150826-11:18:22.175|56=NASDAQ|10=146|8=FIX.4.2|9=63|35=0|34=23|49=EQUITY-TRADER|52=20150826-11:18:52.368|56=NASDAQ|10=154|8=FIX.4.2|9=63|35=0|34=24|49=EQUITY-TRADER|52=20150826-11:19:22.372|56=NASDAQ|10=148|8=FIX.4.2|9=63|35=0|34=25|49=EQUITY-TRADER|52=20150826-11:19:52.371|56=NASDAQ|10=151|8=FIX.4.2|9=63|35=0|34=26|49=EQUITY-TRADER|52=20150826-11:20:22.373|56=NASDAQ|10=143|8=FIX.4.2|9=63|35=0|34=27|49=EQUITY-TRADER|52=20150826-11:20:52.374|56=NASDAQ|10=148|8=FIX.4.2|9=63|35=0|34=28|49=EQUITY-TRADER|52=20150826-11:21:22.382|56=NASDAQ|10=146|8=FIX.4.2|9=145|35=D|34=29|49=EQUITY-TRADER|52=20150826-11:21:38.893|56=NASDAQ|11=EQUITY-TRADER-0|21=1|38=9|40=2|44=106.34|54=1|55=AAPL|60=20150826-11:21:38.893|10=138|8=FIX.4.2|9=63|35=0|34=30|49=EQUITY-TRADER|52=20150826-11:22:09.181|56=NASDAQ|10=142|8=FIX.4.2|9=63|35=0|34=31|49=EQUITY-TRADER|52=20150826-11:22:39.174|56=NASDAQ|10=148|8=FIX.4.2|9=63|35=0|34=32|49=EQUITY-TRADER|52=20150826-11:23:09.174|56=NASDAQ|10=147|8=FIX.4.2|9=63|35=0|34=33|49=EQUITY-TRADER|52=20150826-11:23:39.183|56=NASDAQ|10=151|8=FIX.4.2|9=63|35=0|34=34|49=EQUITY-TRADER|52=20150826-11:24:09.180|56=NASDAQ|10=147|8=FIX.4.2|9=63|35=0|34=35|49=EQUITY-TRADER|52=20150826-11:24:39.179|56=NASDAQ|10=159|8=FIX.4.2|9=63|35=0|34=36|49=EQUITY-TRADER|52=20150826-11:25:09.181|56=NASDAQ|10=151|8=FIX.4.2|9=63|35=0|34=37|49=EQUITY-TRADER|52=20150826-11:25:39.172|56=NASDAQ|10=155|8=FIX.4.2|9=63|35=0|34=38|49=EQUITY-TRADER|52=20150826-11:26:09.173|56=NASDAQ|10=155|8=FIX.4.2|9=63|35=0|34=39|49=EQUITY-TRADER|52=20150826-11:26:39.186|56=NASDAQ|10=163|8=FIX.4.2|9=145|35=D|34=40|49=EQUITY-TRADER|52=20150826-11:27:05.003|56=NASDAQ|11=EQUITY-TRADER-0|21=1|38=9|40=2|44=106.44|54=1|55=AAPL|60=20150826-11:27:05.003|10=098|8=FIX.4.2|9=63|35=0|34=41|49=EQUITY-TRADER|52=20150826-11:27:35.175|56=NASDAQ|10=151|8=FIX.4.2|9=63|35=0|34=42|49=EQUITY-TRADER|52=20150826-11:28:05.176|56=NASDAQ|10=151|8=FIX.4.2|9=63|35=0|34=43|49=EQUITY-TRADER|52=20150826-11:28:35.179|56=NASDAQ|10=158|8=FIX.4.2|9=63|35=0|34=44|49=EQUITY-TRADER|52=20150826-11:29:05.177|56=NASDAQ|10=155|8=FIX.4.2|9=63|35=0|34=45|49=EQUITY-TRADER|52=20150826-11:29:35.181|56=NASDAQ|10=154|8=FIX.4.2|9=63|35=0|34=46|49=EQUITY-TRADER|52=20150826-11:30:05.179|56=NASDAQ|10=151|8=FIX.4.2|9=63|35=0|34=47|49=EQUITY-TRADER|52=20150826-11:30:35.188|56=NASDAQ|10=155|8=FIX.4.2|9=63|35=0|34=48|49=EQUITY-TRADER|52=20150826-11:31:05.195|56=NASDAQ|10=152|8=FIX.4.2|9=63|35=0|34=49|49=EQUITY-TRADER|52=20150826-11:31:35.189|56=NASDAQ|10=159|8=FIX.4.2|9=63|35=0|34=50|49=EQUITY-TRADER|52=20150826-11:32:05.190|56=NASDAQ|10=141|8=FIX.4.2|9=63|35=0|34=51|49=EQUITY-TRADER|52=20150826-11:32:35.190|56=NASDAQ|10=145|