8=FIX.4.2|9=80|35=A|34=1|49=EQUITY-TRADER|52=20150825-14:16:56.269|56=NASDAQ|98=0|108=30|141=Y|10=192|8=FIX.4.2|9=62|35=0|34=2|49=EQUITY-TRADER|52=20150825-14:17:26.640|56=NASDAQ|10=097|8=FIX.4.2|9=62|35=0|34=3|49=EQUITY-TRADER|52=20150825-14:17:57.240|56=NASDAQ|10=098|8=FIX.4.2|9=62|35=0|34=4|49=EQUITY-TRADER|52=20150825-14:18:27.251|56=NASDAQ|10=099|8=FIX.4.2|9=62|35=0|34=5|49=EQUITY-TRADER|52=20150825-14:18:57.254|56=NASDAQ|10=106|8=FIX.4.2|9=62|35=0|34=6|49=EQUITY-TRADER|52=20150825-14:19:27.249|56=NASDAQ|10=109|8=FIX.4.2|9=62|35=0|34=7|49=EQUITY-TRADER|52=20150825-14:19:57.243|56=NASDAQ|10=107|