8=FIX.4.2|9=80|35=A|34=1|49=EQUITY-TRADER|52=20150827-14:29:46.108|56=NASDAQ|98=0|108=30|141=Y|10=189|8=FIX.4.2|9=62|35=0|34=2|49=EQUITY-TRADER|52=20150827-14:30:16.871|56=NASDAQ|10=099|8=FIX.4.2|9=62|35=0|34=3|49=EQUITY-TRADER|52=20150827-14:30:47.064|56=NASDAQ|10=098|8=FIX.4.2|9=62|35=0|34=4|49=EQUITY-TRADER|52=20150827-14:31:17.057|56=NASDAQ|10=099|8=FIX.4.2|9=62|35=0|34=5|49=EQUITY-TRADER|52=20150827-14:31:47.077|56=NASDAQ|10=105|8=FIX.4.2|9=62|35=0|34=6|49=EQUITY-TRADER|52=20150827-14:32:17.866|56=NASDAQ|10=110|8=FIX.4.2|9=62|35=0|34=7|49=EQUITY-TRADER|52=20150827-14:32:47.919|56=NASDAQ|10=113|8=FIX.4.2|9=62|35=0|34=8|49=EQUITY-TRADER|52=20150827-14:33:18.060|56=NASDAQ|10=100|8=FIX.4.2|9=62|35=0|34=9|49=EQUITY-TRADER|52=20150827-14:33:48.061|56=NASDAQ|10=105|8=FIX.4.2|9=63|35=0|34=10|49=EQUITY-TRADER|52=20150827-14:34:18.061|56=NASDAQ|10=144|8=FIX.4.2|9=63|35=0|34=11|49=EQUITY-TRADER|52=20150827-14:34:48.063|56=NASDAQ|10=150|8=FIX.4.2|9=63|35=0|34=12|49=EQUITY-TRADER|52=20150827-14:35:18.064|56=NASDAQ|10=150|8=FIX.4.2|9=63|35=0|34=13|49=EQUITY-TRADER|52=20150827-14:35:48.064|56=NASDAQ|10=154|8=FIX.4.2|9=63|35=0|34=14|49=EQUITY-TRADER|52=20150827-14:36:18.066|56=NASDAQ|10=155|8=FIX.4.2|9=63|35=0|34=15|49=EQUITY-TRADER|52=20150827-14:36:48.067|56=NASDAQ|10=160|8=FIX.4.2|9=63|35=0|34=16|49=EQUITY-TRADER|52=20150827-14:37:18.068|56=NASDAQ|10=160|8=FIX.4.2|9=63|35=0|34=17|49=EQUITY-TRADER|52=20150827-14:37:48.069|56=NASDAQ|10=165|8=FIX.4.2|9=63|35=0|34=18|49=EQUITY-TRADER|52=20150827-14:38:18.070|56=NASDAQ|10=156|8=FIX.4.2|9=63|35=0|34=19|49=EQUITY-TRADER|52=20150827-14:38:48.083|56=NASDAQ|10=164|8=FIX.4.2|9=63|35=0|34=20|49=EQUITY-TRADER|52=20150827-14:39:19.072|56=NASDAQ|10=153|8=FIX.4.2|9=63|35=0|34=21|49=EQUITY-TRADER|52=20150827-14:39:49.073|56=NASDAQ|10=158|8=FIX.4.2|9=63|35=0|34=22|49=EQUITY-TRADER|52=20150827-14:40:19.074|56=NASDAQ|10=149|8=FIX.4.2|9=63|35=0|34=23|49=EQUITY-TRADER|52=20150827-14:40:49.075|56=NASDAQ|10=154|8=FIX.4.2|9=63|35=0|34=24|49=EQUITY-TRADER|52=20150827-14:41:19.076|56=NASDAQ|10=154|8=FIX.4.2|9=63|35=0|34=25|49=EQUITY-TRADER|52=20150827-14:41:49.081|56=NASDAQ|10=154|8=FIX.4.2|9=63|35=0|34=26|49=EQUITY-TRADER|52=20150827-14:42:19.078|56=NASDAQ|10=159|8=FIX.4.2|9=63|35=0|34=27|49=EQUITY-TRADER|52=20150827-14:42:49.079|56=NASDAQ|10=164|8=FIX.4.2|9=63|35=0|34=28|49=EQUITY-TRADER|52=20150827-14:43:19.081|56=NASDAQ|10=156|8=FIX.4.2|9=63|35=0|34=29|49=EQUITY-TRADER|52=20150827-14:43:49.081|56=NASDAQ|10=160|8=FIX.4.2|9=63|35=0|34=30|49=EQUITY-TRADER|52=20150827-14:44:19.082|56=NASDAQ|10=151|8=FIX.4.2|9=63|35=0|34=31|49=EQUITY-TRADER|52=20150827-14:44:49.084|56=NASDAQ|10=157|8=FIX.4.2|9=63|35=0|34=32|49=EQUITY-TRADER|52=20150827-14:45:19.089|56=NASDAQ|10=161|8=FIX.4.2|9=63|35=0|34=33|49=EQUITY-TRADER|52=20150827-14:45:49.095|56=NASDAQ|10=162|8=FIX.4.2|9=63|35=0|34=34|49=EQUITY-TRADER|52=20150827-14:46:19.087|56=NASDAQ|10=162|8=FIX.4.2|9=63|35=0|34=35|49=EQUITY-TRADER|52=20150827-14:46:49.088|56=NASDAQ|10=167|8=FIX.4.2|9=63|35=0|34=36|49=EQUITY-TRADER|52=20150827-14:47:19.088|56=NASDAQ|10=166|8=FIX.4.2|9=63|35=0|34=37|49=EQUITY-TRADER|52=20150827-14:47:49.089|56=NASDAQ|10=171|8=FIX.4.2|9=63|35=0|34=38|49=EQUITY-TRADER|52=20150827-14:48:19.091|56=NASDAQ|10=163|8=FIX.4.2|9=63|35=0|34=39|49=EQUITY-TRADER|52=20150827-14:48:49.092|56=NASDAQ|10=168|8=FIX.4.2|9=63|35=0|34=40|49=EQUITY-TRADER|52=20150827-14:49:19.093|56=NASDAQ|10=159|8=FIX.4.2|9=63|35=0|34=41|49=EQUITY-TRADER|52=20150827-14:49:49.093|56=NASDAQ|10=163|8=FIX.4.2|9=63|35=0|34=42|49=EQUITY-TRADER|52=20150827-14:50:19.097|56=NASDAQ|10=157|