8=FIX.4.2|9=80|35=A|34=1|49=EQUITY-TRADER|52=20150827-01:29:07.128|56=NASDAQ|98=0|108=30|141=Y|10=184|8=FIX.4.2|9=62|35=0|34=2|49=EQUITY-TRADER|52=20150827-01:29:37.380|56=NASDAQ|10=101|8=FIX.4.2|9=62|35=0|34=3|49=EQUITY-TRADER|52=20150827-01:30:07.375|56=NASDAQ|10=095|8=FIX.4.2|9=62|35=0|34=4|49=EQUITY-TRADER|52=20150827-01:30:37.373|56=NASDAQ|10=097|8=FIX.4.2|9=62|35=0|34=5|49=EQUITY-TRADER|52=20150827-01:31:07.373|56=NASDAQ|10=096|8=FIX.4.2|9=62|35=0|34=6|49=EQUITY-TRADER|52=20150827-01:31:37.404|56=NASDAQ|10=095|8=FIX.4.2|9=62|35=0|34=7|49=EQUITY-TRADER|52=20150827-01:32:08.077|56=NASDAQ|10=101|8=FIX.4.2|9=62|35=0|34=8|49=EQUITY-TRADER|52=20150827-01:32:38.084|56=NASDAQ|10=103|8=FIX.4.2|9=62|35=0|34=9|49=EQUITY-TRADER|52=20150827-01:33:08.086|56=NASDAQ|10=104|8=FIX.4.2|9=63|35=0|34=10|49=EQUITY-TRADER|52=20150827-01:33:38.083|56=NASDAQ|10=145|8=FIX.4.2|9=63|35=0|34=11|49=EQUITY-TRADER|52=20150827-01:34:08.096|56=NASDAQ|10=148|8=FIX.4.2|9=63|35=0|34=12|49=EQUITY-TRADER|52=20150827-01:34:38.088|56=NASDAQ|10=153|8=FIX.4.2|9=63|35=0|34=13|49=EQUITY-TRADER|52=20150827-01:35:08.084|56=NASDAQ|10=148|8=FIX.4.2|9=63|35=0|34=14|49=EQUITY-TRADER|52=20150827-01:35:38.089|56=NASDAQ|10=157|8=FIX.4.2|9=63|35=0|34=15|49=EQUITY-TRADER|52=20150827-01:36:08.088|56=NASDAQ|10=155|8=FIX.4.2|9=63|35=0|34=16|49=EQUITY-TRADER|52=20150827-01:36:38.095|56=NASDAQ|10=157|8=FIX.4.2|9=63|35=0|34=17|49=EQUITY-TRADER|52=20150827-01:37:08.087|56=NASDAQ|10=157|8=FIX.4.2|9=63|35=0|34=18|49=EQUITY-TRADER|52=20150827-01:37:38.091|56=NASDAQ|10=156|8=FIX.4.2|9=63|35=0|34=19|49=EQUITY-TRADER|52=20150827-01:38:08.092|56=NASDAQ|10=156|8=FIX.4.2|9=63|35=0|34=20|49=EQUITY-TRADER|52=20150827-01:38:38.103|56=NASDAQ|10=144|8=FIX.4.2|9=63|35=0|34=21|49=EQUITY-TRADER|52=20150827-01:39:08.100|56=NASDAQ|10=140|8=FIX.4.2|9=63|35=0|34=22|49=EQUITY-TRADER|52=20150827-01:39:38.103|56=NASDAQ|10=147|8=FIX.4.2|9=63|35=0|34=23|49=EQUITY-TRADER|52=20150827-01:40:08.099|56=NASDAQ|10=151|8=FIX.4.2|9=63|35=0|34=24|49=EQUITY-TRADER|52=20150827-01:40:38.102|56=NASDAQ|10=140|8=FIX.4.2|9=63|35=0|34=25|49=EQUITY-TRADER|52=20150827-01:41:08.100|56=NASDAQ|10=137|8=FIX.4.2|9=63|35=0|34=26|49=EQUITY-TRADER|52=20150827-01:41:38.100|56=NASDAQ|10=141|8=FIX.4.2|9=63|35=0|34=27|49=EQUITY-TRADER|52=20150827-01:42:08.098|56=NASDAQ|10=156|8=FIX.4.2|9=63|35=0|34=28|49=EQUITY-TRADER|52=20150827-01:42:38.104|56=NASDAQ|10=148|8=FIX.4.2|9=63|35=0|34=29|49=EQUITY-TRADER|52=20150827-01:43:08.106|56=NASDAQ|10=149|8=FIX.4.2|9=63|35=0|34=30|49=EQUITY-TRADER|52=20150827-01:43:38.111|56=NASDAQ|10=140|8=FIX.4.2|9=63|35=0|34=31|49=EQUITY-TRADER|52=20150827-01:44:08.109|56=NASDAQ|10=146|8=FIX.4.2|9=63|35=0|34=32|49=EQUITY-TRADER|52=20150827-01:44:38.113|56=NASDAQ|10=145|8=FIX.4.2|9=63|35=0|34=33|49=EQUITY-TRADER|52=20150827-01:45:08.111|56=NASDAQ|10=142|8=FIX.4.2|9=63|35=0|34=34|49=EQUITY-TRADER|52=20150827-01:45:38.112|56=NASDAQ|10=147|8=FIX.4.2|9=63|35=0|34=35|49=EQUITY-TRADER|52=20150827-01:46:08.117|56=NASDAQ|10=151|8=FIX.4.2|9=63|35=0|34=36|49=EQUITY-TRADER|52=20150827-01:46:38.115|56=NASDAQ|10=153|8=FIX.4.2|9=63|35=0|34=37|49=EQUITY-TRADER|52=20150827-01:47:08.107|56=NASDAQ|10=153|8=FIX.4.2|9=63|35=0|34=38|49=EQUITY-TRADER|52=20150827-01:47:38.118|56=NASDAQ|10=159|8=FIX.4.2|9=63|35=0|34=39|49=EQUITY-TRADER|52=20150827-01:48:08.110|56=NASDAQ|10=150|8=FIX.4.2|9=63|35=0|34=40|49=EQUITY-TRADER|52=20150827-01:48:38.126|56=NASDAQ|10=152|8=FIX.4.2|9=63|35=0|34=41|49=EQUITY-TRADER|52=20150827-01:49:08.117|56=NASDAQ|10=151|8=FIX.4.2|9=63|35=0|34=42|49=EQUITY-TRADER|52=20150827-01:49:38.126|56=NASDAQ|10=155|8=FIX.4.2|9=63|35=0|34=43|49=EQUITY-TRADER|52=20150827-01:50:08.118|56=NASDAQ|10=146|8=FIX.4.2|9=63|35=0|34=44|49=EQUITY-TRADER|52=20150827-01:50:38.122|56=NASDAQ|10=145|8=FIX.4.2|9=63|35=0|34=45|49=EQUITY-TRADER|52=20150827-01:51:08.124|56=NASDAQ|10=146|8=FIX.4.2|9=63|35=0|34=46|49=EQUITY-TRADER|52=20150827-01:51:38.124|56=NASDAQ|10=150|8=FIX.4.2|9=63|35=0|34=47|49=EQUITY-TRADER|52=20150827-01:52:08.120|56=NASDAQ|10=145|8=FIX.4.2|9=63|35=0|34=48|49=EQUITY-TRADER|52=20150827-01:52:38.131|56=NASDAQ|10=151|8=FIX.4.2|9=63|35=0|34=49|49=EQUITY-TRADER|52=20150827-01:53:08.124|56=NASDAQ|10=152|8=FIX.4.2|9=63|35=0|34=50|49=EQUITY-TRADER|52=20150827-01:53:38.133|56=NASDAQ|10=147|8=FIX.4.2|9=63|35=0|34=51|49=EQUITY-TRADER|52=20150827-01:54:08.130|56=NASDAQ|10=143|8=FIX.4.2|9=63|35=0|34=52|49=EQUITY-TRADER|52=20150827-01:54:38.124|56=NASDAQ|10=150|8=FIX.4.2|9=63|35=0|34=53|49=EQUITY-TRADER|52=20150827-01:55:08.124|56=NASDAQ|10=149|8=FIX.4.2|9=63|35=0|34=54|49=EQUITY-TRADER|52=20150827-01:55:38.127|56=NASDAQ|10=156|8=FIX.4.2|9=63|35=0|34=55|49=EQUITY-TRADER|52=20150827-01:56:08.128|56=NASDAQ|10=156|8=FIX.4.2|9=63|35=0|34=56|49=EQUITY-TRADER|52=20150827-01:56:38.129|56=NASDAQ|10=161|8=FIX.4.2|9=63|35=0|34=57|49=EQUITY-TRADER|52=20150827-01:57:08.129|56=NASDAQ|10=160|8=FIX.4.2|9=63|35=0|34=58|49=EQUITY-TRADER|52=20150827-01:57:38.133|56=NASDAQ|10=159|8=FIX.4.2|9=63|35=0|34=59|49=EQUITY-TRADER|52=20150827-01:58:08.138|56=NASDAQ|10=163|8=FIX.4.2|9=63|35=0|34=60|49=EQUITY-TRADER|52=20150827-01:58:38.131|56=NASDAQ|10=151|8=FIX.4.2|9=63|35=0|34=61|49=EQUITY-TRADER|52=20150827-01:59:08.138|56=NASDAQ|10=157|8=FIX.4.2|9=63|35=0|34=62|49=EQUITY-TRADER|52=20150827-01:59:38.134|56=NASDAQ|10=157|8=FIX.4.2|9=63|35=0|34=63|49=EQUITY-TRADER|52=20150827-02:00:08.136|56=NASDAQ|10=144|8=FIX.4.2|9=63|35=0|34=64|49=EQUITY-TRADER|52=20150827-02:00:38.140|56=NASDAQ|10=143|8=FIX.4.2|9=63|35=0|34=65|49=EQUITY-TRADER|52=20150827-02:01:08.138|56=NASDAQ|10=149|8=FIX.4.2|9=63|35=0|34=66|49=EQUITY-TRADER|52=20150827-02:01:38.141|56=NASDAQ|10=147|8=FIX.4.2|9=63|35=0|34=67|49=EQUITY-TRADER|52=20150827-02:02:08.138|56=NASDAQ|10=152|8=FIX.4.2|9=63|35=0|34=68|49=EQUITY-TRADER|52=20150827-02:02:38.142|56=NASDAQ|10=151|8=FIX.4.2|9=63|35=0|34=69|49=EQUITY-TRADER|52=20150827-02:03:08.141|56=NASDAQ|10=149|8=FIX.4.2|9=63|35=0|34=70|49=EQUITY-TRADER|52=20150827-02:03:38.156|56=NASDAQ|10=150|8=FIX.4.2|9=63|35=0|34=71|49=EQUITY-TRADER|52=20150827-02:04:09.143|56=NASDAQ|10=146|8=FIX.4.2|9=63|35=0|34=72|49=EQUITY-TRADER|52=20150827-02:04:39.156|56=NASDAQ|10=154|8=FIX.4.2|9=63|35=0|34=73|49=EQUITY-TRADER|52=20150827-02:05:09.451|56=NASDAQ|10=151|8=FIX.4.2|9=63|35=0|34=74|49=EQUITY-TRADER|52=20150827-02:05:39.449|56=NASDAQ|10=162|8=FIX.4.2|9=63|35=0|34=75|49=EQUITY-TRADER|52=20150827-02:06:09.458|56=NASDAQ|10=161|8=FIX.4.2|9=63|35=0|34=76|49=EQUITY-TRADER|52=20150827-02:06:39.454|56=NASDAQ|10=161|8=FIX.4.2|9=63|35=0|34=77|49=EQUITY-TRADER|52=20150827-02:07:09.453|56=NASDAQ|10=159|8=FIX.4.2|9=63|35=0|34=78|49=EQUITY-TRADER|52=20150827-02:07:39.453|56=NASDAQ|10=163|8=FIX.4.2|9=63|35=0|34=79|49=EQUITY-TRADER|52=20150827-02:08:09.454|56=NASDAQ|10=163|8=FIX.4.2|9=63|35=0|34=80|49=EQUITY-TRADER|52=20150827-02:08:39.465|56=NASDAQ|10=160|8=FIX.4.2|9=63|35=0|34=81|49=EQUITY-TRADER|52=20150827-02:09:09.456|56=NASDAQ|10=159|8=FIX.4.2|9=63|35=0|34=82|49=EQUITY-TRADER|52=20150827-02:09:39.476|56=NASDAQ|10=165|8=FIX.4.2|9=63|35=0|34=83|49=EQUITY-TRADER|52=20150827-02:10:10.156|56=NASDAQ|10=142|8=FIX.4.2|9=63|35=0|34=84|49=EQUITY-TRADER|52=20150827-02:10:40.158|56=NASDAQ|10=148|8=FIX.4.2|9=63|35=0|34=85|49=EQUITY-TRADER|52=20150827-02:11:10.167|56=NASDAQ|10=147|8=FIX.4.2|9=63|35=0|34=86|49=EQUITY-TRADER|52=20150827-02:11:40.170|56=NASDAQ|10=145|8=FIX.4.2|9=63|35=0|34=87|49=EQUITY-TRADER|52=20150827-02:12:10.167|56=NASDAQ|10=150|8=FIX.4.2|9=63|35=0|34=88|49=EQUITY-TRADER|52=20150827-02:12:40.170|56=NASDAQ|10=148|8=FIX.4.2|9=63|35=0|34=89|49=EQUITY-TRADER|52=20150827-02:13:10.161|56=NASDAQ|10=147|8=FIX.4.2|9=63|35=0|34=90|49=EQUITY-TRADER|52=20150827-02:13:40.177|56=NASDAQ|10=149|8=FIX.4.2|9=63|35=0|34=91|49=EQUITY-TRADER|52=20150827-02:14:10.178|56=NASDAQ|10=149|8=FIX.4.2|9=63|35=0|34=92|49=EQUITY-TRADER|52=20150827-02:14:40.470|56=NASDAQ|10=148|8=FIX.4.2|9=63|35=0|34=93|49=EQUITY-TRADER|52=20150827-02:15:10.474|56=NASDAQ|10=151|8=FIX.4.2|9=63|35=0|34=94|49=EQUITY-TRADER|52=20150827-02:15:40.469|56=NASDAQ|10=159|8=FIX.4.2|9=63|35=0|34=95|49=EQUITY-TRADER|52=20150827-02:16:10.469|56=NASDAQ|10=158|8=FIX.4.2|9=63|35=0|34=96|49=EQUITY-TRADER|52=20150827-02:16:40.482|56=NASDAQ|10=157|8=FIX.4.2|9=63|35=0|34=97|49=EQUITY-TRADER|52=20150827-02:17:10.475|56=NASDAQ|10=158|8=FIX.4.2|9=63|35=0|34=98|49=EQUITY-TRADER|52=20150827-02:17:40.484|56=NASDAQ|10=162|8=FIX.4.2|9=63|35=0|34=99|49=EQUITY-TRADER|52=20150827-02:18:10.482|56=NASDAQ|10=159|8=FIX.4.2|9=64|35=0|34=100|49=EQUITY-TRADER|52=20150827-02:18:40.482|56=NASDAQ|10=194|8=FIX.4.2|9=64|35=0|34=101|49=EQUITY-TRADER|52=20150827-02:19:10.484|56=NASDAQ|10=195|8=FIX.4.2|9=64|35=0|34=102|49=EQUITY-TRADER|52=20150827-02:19:40.487|56=NASDAQ|10=202|8=FIX.4.2|9=64|35=0|34=103|49=EQUITY-TRADER|52=20150827-02:20:11.179|56=NASDAQ|10=191|8=FIX.4.2|9=64|35=0|34=104|49=EQUITY-TRADER|52=20150827-02:20:41.179|56=NASDAQ|10=195|8=FIX.4.2|9=64|35=0|34=105|49=EQUITY-TRADER|52=20150827-02:21:11.191|56=NASDAQ|10=188|8=FIX.4.2|9=64|35=0|34=106|49=EQUITY-TRADER|52=20150827-02:21:41.184|56=NASDAQ|10=194|8=FIX.4.2|9=64|35=0|34=107|49=EQUITY-TRADER|52=20150827-02:22:11.185|56=NASDAQ|10=194|8=FIX.4.2|9=64|35=0|34=108|49=EQUITY-TRADER|52=20150827-02:22:41.188|56=NASDAQ|10=201|8=FIX.4.2|9=64|35=0|34=109|49=EQUITY-TRADER|52=20150827-02:23:11.189|56=NASDAQ|10=201|8=FIX.4.2|9=64|35=0|34=110|49=EQUITY-TRADER|52=20150827-02:23:41.187|56=NASDAQ|10=194|8=FIX.4.2|9=64|35=0|34=111|49=EQUITY-TRADER|52=20150827-02:24:11.189|56=NASDAQ|10=195|8=FIX.4.2|9=64|35=0|34=112|49=EQUITY-TRADER|52=20150827-02:24:41.192|56=NASDAQ|10=193|8=FIX.4.2|9=64|35=0|34=113|49=EQUITY-TRADER|52=20150827-02:25:11.188|56=NASDAQ|10=197|8=FIX.4.2|9=64|35=0|34=114|49=EQUITY-TRADER|52=20150827-02:25:41.191|56=NASDAQ|10=195|8=FIX.4.2|9=64|35=0|34=115|49=EQUITY-TRADER|52=20150827-02:26:11.196|56=NASDAQ|10=199|8=FIX.4.2|9=64|35=0|34=116|49=EQUITY-TRADER|52=20150827-02:26:41.193|56=NASDAQ|10=200|8=FIX.4.2|9=64|35=0|34=117|49=EQUITY-TRADER|52=20150827-02:27:11.194|56=NASDAQ|10=200|8=FIX.4.2|9=64|35=0|34=118|49=EQUITY-TRADER|52=20150827-02:27:41.199|56=NASDAQ|10=209|8=FIX.4.2|9=64|35=0|34=119|49=EQUITY-TRADER|52=20150827-02:28:11.195|56=NASDAQ|10=204|8=FIX.4.2|9=64|35=0|34=120|49=EQUITY-TRADER|52=20150827-02:28:41.197|56=NASDAQ|10=201|8=FIX.4.2|9=64|35=0|34=121|49=EQUITY-TRADER|52=20150827-02:29:11.206|56=NASDAQ|10=191|8=FIX.4.2|9=64|35=0|34=122|49=EQUITY-TRADER|52=20150827-02:29:41.206|56=NASDAQ|10=195|8=FIX.4.2|9=64|35=0|34=123|49=EQUITY-TRADER|52=20150827-02:30:11.199|56=NASDAQ|10=196|8=FIX.4.2|9=64|35=0|34=124|49=EQUITY-TRADER|52=20150827-02:30:41.203|56=NASDAQ|10=186|8=FIX.4.2|9=64|35=0|34=125|49=EQUITY-TRADER|52=20150827-02:31:11.198|56=NASDAQ|10=198|8=FIX.4.2|9=64|35=0|34=126|49=EQUITY-TRADER|52=20150827-02:31:41.206|56=NASDAQ|10=192|8=FIX.4.2|9=64|35=0|34=127|49=EQUITY-TRADER|52=20150827-02:32:11.201|56=NASDAQ|10=186|8=FIX.4.2|9=64|35=0|34=128|49=EQUITY-TRADER|52=20150827-02:32:41.214|56=NASDAQ|10=194|8=FIX.4.2|9=64|35=0|34=129|49=EQUITY-TRADER|52=20150827-02:33:11.505|56=NASDAQ|10=196|8=FIX.4.2|9=64|35=0|34=130|49=EQUITY-TRADER|52=20150827-02:33:41.506|56=NASDAQ|10=192|8=FIX.4.2|9=64|35=0|34=131|49=EQUITY-TRADER|52=20150827-02:34:11.503|56=NASDAQ|10=188|8=FIX.4.2|9=64|35=0|34=132|49=EQUITY-TRADER|52=20150827-02:34:41.509|56=NASDAQ|10=198|8=FIX.4.2|9=64|35=0|34=133|49=EQUITY-TRADER|52=20150827-02:35:11.510|56=NASDAQ|10=189|8=FIX.4.2|9=64|35=0|34=134|49=EQUITY-TRADER|52=20150827-02:35:41.516|56=NASDAQ|10=199|8=FIX.4.2|9=64|35=0|34=135|49=EQUITY-TRADER|52=20150827-02:36:11.519|56=NASDAQ|10=201|8=FIX.4.2|9=64|35=0|34=136|49=EQUITY-TRADER|52=20150827-02:36:41.523|56=NASDAQ|10=200|