8=FIX.4.2|9=80|35=A|34=1|49=EQUITY-TRADER|52=20150827-04:00:12.674|56=NASDAQ|98=0|108=30|141=Y|10=178|8=FIX.4.2|9=62|35=0|34=2|49=EQUITY-TRADER|52=20150827-04:00:43.374|56=NASDAQ|10=093|8=FIX.4.2|9=62|35=0|34=3|49=EQUITY-TRADER|52=20150827-04:01:13.645|56=NASDAQ|10=093|8=FIX.4.2|9=62|35=0|34=4|49=EQUITY-TRADER|52=20150827-04:01:43.656|56=NASDAQ|10=099|8=FIX.4.2|9=62|35=0|34=5|49=EQUITY-TRADER|52=20150827-04:02:13.650|56=NASDAQ|10=092|8=FIX.4.2|9=62|35=0|34=6|49=EQUITY-TRADER|52=20150827-04:02:43.655|56=NASDAQ|10=101|8=FIX.4.2|9=143|35=D|34=7|49=EQUITY-TRADER|52=20150827-04:03:06.511|56=NASDAQ|11=EQUITY-TRADER-0|21=1|38=16|40=2|44=55.97|54=1|55=CHL|60=20150827-04:03:06.480|10=254|8=FIX.4.2|9=62|35=0|34=8|49=EQUITY-TRADER|52=20150827-04:03:36.651|56=NASDAQ|10=102|8=FIX.4.2|9=62|35=0|34=9|49=EQUITY-TRADER|52=20150827-04:04:06.657|56=NASDAQ|10=107|