8=FIX.4.2|9=80|35=A|34=1|49=EQUITY-TRADER|52=20150826-07:53:59.564|56=NASDAQ|98=0|108=30|141=Y|10=197|8=FIX.4.2|9=62|35=0|34=2|49=EQUITY-TRADER|52=20150826-07:54:30.258|56=NASDAQ|10=101|8=FIX.4.2|9=62|35=0|34=3|49=EQUITY-TRADER|52=20150826-07:55:00.250|56=NASDAQ|10=092|8=FIX.4.2|9=62|35=0|34=4|49=EQUITY-TRADER|52=20150826-07:55:30.264|56=NASDAQ|10=101|8=FIX.4.2|9=62|35=0|34=5|49=EQUITY-TRADER|52=20150826-07:56:00.550|56=NASDAQ|10=098|8=FIX.4.2|9=62|35=0|34=6|49=EQUITY-TRADER|52=20150826-07:56:31.270|56=NASDAQ|10=102|8=FIX.4.2|9=62|35=0|34=7|49=EQUITY-TRADER|52=20150826-07:57:01.541|56=NASDAQ|10=102|8=FIX.4.2|9=62|35=0|34=8|49=EQUITY-TRADER|52=20150826-07:57:31.539|56=NASDAQ|10=113|8=FIX.4.2|9=62|35=0|34=9|49=EQUITY-TRADER|52=20150826-07:58:01.539|56=NASDAQ|10=112|8=FIX.4.2|9=63|35=0|34=10|49=EQUITY-TRADER|52=20150826-07:58:31.541|56=NASDAQ|10=149|8=FIX.4.2|9=63|35=0|34=11|49=EQUITY-TRADER|52=20150826-07:59:01.540|56=NASDAQ|10=147|8=FIX.4.2|9=63|35=0|34=12|49=EQUITY-TRADER|52=20150826-07:59:31.541|56=NASDAQ|10=152|8=FIX.4.2|9=63|35=0|34=13|49=EQUITY-TRADER|52=20150826-08:00:01.552|56=NASDAQ|10=139|8=FIX.4.2|9=63|35=0|34=14|49=EQUITY-TRADER|52=20150826-08:00:31.549|56=NASDAQ|10=149|8=FIX.4.2|9=63|35=0|34=15|49=EQUITY-TRADER|52=20150826-08:01:01.548|56=NASDAQ|10=147|8=FIX.4.2|9=63|35=0|34=16|49=EQUITY-TRADER|52=20150826-08:01:31.554|56=NASDAQ|10=148|8=FIX.4.2|9=63|35=0|34=17|49=EQUITY-TRADER|52=20150826-08:02:01.547|56=NASDAQ|10=149|8=FIX.4.2|9=63|35=0|34=18|49=EQUITY-TRADER|52=20150826-08:02:31.572|56=NASDAQ|10=151|8=FIX.4.2|9=63|35=0|34=19|49=EQUITY-TRADER|52=20150826-08:03:02.267|56=NASDAQ|10=152|8=FIX.4.2|9=63|35=0|34=20|49=EQUITY-TRADER|52=20150826-08:03:32.275|56=NASDAQ|10=146|8=FIX.4.2|9=63|35=0|34=21|49=EQUITY-TRADER|52=20150826-08:04:02.272|56=NASDAQ|10=142|8=FIX.4.2|9=63|35=0|34=22|49=EQUITY-TRADER|52=20150826-08:04:32.273|56=NASDAQ|10=147|8=FIX.4.2|9=63|35=0|34=23|49=EQUITY-TRADER|52=20150826-08:05:02.275|56=NASDAQ|10=148|8=FIX.4.2|9=63|35=0|34=24|49=EQUITY-TRADER|52=20150826-08:05:32.273|56=NASDAQ|10=150|8=FIX.4.2|9=63|35=0|34=25|49=EQUITY-TRADER|52=20150826-08:06:02.281|56=NASDAQ|10=148|8=FIX.4.2|9=63|35=0|34=26|49=EQUITY-TRADER|52=20150826-08:06:32.280|56=NASDAQ|10=151|8=FIX.4.2|9=63|35=0|34=27|49=EQUITY-TRADER|52=20150826-08:07:02.276|56=NASDAQ|10=155|8=FIX.4.2|9=63|35=0|34=28|49=EQUITY-TRADER|52=20150826-08:07:32.283|56=NASDAQ|10=157|8=FIX.4.2|9=63|35=0|34=29|49=EQUITY-TRADER|52=20150826-08:08:02.279|56=NASDAQ|10=161|8=FIX.4.2|9=63|35=0|34=30|49=EQUITY-TRADER|52=20150826-08:08:32.286|56=NASDAQ|10=154|8=FIX.4.2|9=63|35=0|34=31|49=EQUITY-TRADER|52=20150826-08:09:02.287|56=NASDAQ|10=154|8=FIX.4.2|9=63|35=0|34=32|49=EQUITY-TRADER|52=20150826-08:09:32.279|56=NASDAQ|10=159|8=FIX.4.2|9=63|35=0|34=33|49=EQUITY-TRADER|52=20150826-08:10:02.290|56=NASDAQ|10=142|8=FIX.4.2|9=63|35=0|34=34|49=EQUITY-TRADER|52=20150826-08:10:32.284|56=NASDAQ|10=149|8=FIX.4.2|9=63|35=0|34=35|49=EQUITY-TRADER|52=20150826-08:11:02.292|56=NASDAQ|10=147|8=FIX.4.2|9=63|35=0|34=36|49=EQUITY-TRADER|52=20150826-08:11:32.575|56=NASDAQ|10=155|8=FIX.4.2|9=63|35=0|34=37|49=EQUITY-TRADER|52=20150826-08:12:02.568|56=NASDAQ|10=156|8=FIX.4.2|9=63|35=0|34=38|49=EQUITY-TRADER|52=20150826-08:12:32.579|56=NASDAQ|10=162|8=FIX.4.2|9=63|35=0|34=39|49=EQUITY-TRADER|52=20150826-08:13:02.576|56=NASDAQ|10=158|8=FIX.4.2|9=63|35=0|34=40|49=EQUITY-TRADER|52=20150826-08:13:32.575|56=NASDAQ|10=152|8=FIX.4.2|9=63|35=0|34=41|49=EQUITY-TRADER|52=20150826-08:14:02.569|56=NASDAQ|10=154|8=FIX.4.2|9=63|35=0|34=42|49=EQUITY-TRADER|52=20150826-08:14:32.573|56=NASDAQ|10=153|8=FIX.4.2|9=63|35=0|34=43|49=EQUITY-TRADER|52=20150826-08:15:02.571|56=NASDAQ|10=150|8=FIX.4.2|9=63|35=0|34=44|49=EQUITY-TRADER|52=20150826-08:15:32.578|56=NASDAQ|10=161|8=FIX.4.2|9=63|35=0|34=45|49=EQUITY-TRADER|52=20150826-08:16:02.574|56=NASDAQ|10=156|8=FIX.4.2|9=63|35=0|34=46|49=EQUITY-TRADER|52=20150826-08:16:32.581|56=NASDAQ|10=158|8=FIX.4.2|9=63|35=0|34=47|49=EQUITY-TRADER|52=20150826-08:17:02.577|56=NASDAQ|10=162|8=FIX.4.2|9=63|35=0|34=48|49=EQUITY-TRADER|52=20150826-08:17:32.574|56=NASDAQ|10=163|8=FIX.4.2|9=63|35=0|34=49|49=EQUITY-TRADER|52=20150826-08:18:02.583|56=NASDAQ|10=162|8=FIX.4.2|9=63|35=0|34=50|49=EQUITY-TRADER|52=20150826-08:18:32.590|56=NASDAQ|10=155|8=FIX.4.2|9=63|35=0|34=51|49=EQUITY-TRADER|52=20150826-08:19:03.298|56=NASDAQ|10=160|8=FIX.4.2|9=63|35=0|34=52|49=EQUITY-TRADER|52=20150826-08:19:33.297|56=NASDAQ|10=163|8=FIX.4.2|9=63|35=0|34=53|49=EQUITY-TRADER|52=20150826-08:20:03.305|56=NASDAQ|10=143|8=FIX.4.2|9=63|35=0|34=54|49=EQUITY-TRADER|52=20150826-08:20:33.310|56=NASDAQ|10=143|8=FIX.4.2|9=63|35=0|34=55|49=EQUITY-TRADER|52=20150826-08:21:03.307|56=NASDAQ|10=148|8=FIX.4.2|9=63|35=0|34=56|49=EQUITY-TRADER|52=20150826-08:21:33.309|56=NASDAQ|10=154|8=FIX.4.2|9=63|35=0|34=57|49=EQUITY-TRADER|52=20150826-08:22:03.306|56=NASDAQ|10=150|8=FIX.4.2|9=63|35=0|34=58|49=EQUITY-TRADER|52=20150826-08:22:33.303|56=NASDAQ|10=151|8=FIX.4.2|9=63|35=0|34=59|49=EQUITY-TRADER|52=20150826-08:23:03.321|56=NASDAQ|10=150|8=FIX.4.2|9=63|35=0|34=60|49=EQUITY-TRADER|52=20150826-08:23:33.591|56=NASDAQ|10=154|8=FIX.4.2|9=63|35=0|34=61|49=EQUITY-TRADER|52=20150826-08:24:03.586|56=NASDAQ|10=157|8=FIX.4.2|9=63|35=0|34=62|49=EQUITY-TRADER|52=20150826-08:24:33.591|56=NASDAQ|10=157|8=FIX.4.2|9=63|35=0|34=63|49=EQUITY-TRADER|52=20150826-08:25:03.596|56=NASDAQ|10=161|8=FIX.4.2|9=63|35=0|34=64|49=EQUITY-TRADER|52=20150826-08:25:33.595|56=NASDAQ|10=164|8=FIX.4.2|9=63|35=0|34=65|49=EQUITY-TRADER|52=20150826-08:26:03.592|56=NASDAQ|10=160|8=FIX.4.2|9=63|35=0|34=66|49=EQUITY-TRADER|52=20150826-08:26:33.595|56=NASDAQ|10=167|8=FIX.4.2|9=63|35=0|34=67|49=EQUITY-TRADER|52=20150826-08:27:03.605|56=NASDAQ|10=158|8=FIX.4.2|9=63|35=0|34=68|49=EQUITY-TRADER|52=20150826-08:27:33.605|56=NASDAQ|10=162|8=FIX.4.2|9=63|35=0|34=69|49=EQUITY-TRADER|52=20150826-08:28:03.607|56=NASDAQ|10=163|8=FIX.4.2|9=63|35=0|34=70|49=EQUITY-TRADER|52=20150826-08:28:33.608|56=NASDAQ|10=159|8=FIX.4.2|9=63|35=0|34=71|49=EQUITY-TRADER|52=20150826-08:29:03.601|56=NASDAQ|10=151|8=FIX.4.2|9=63|35=0|34=72|49=EQUITY-TRADER|52=20150826-08:29:33.607|56=NASDAQ|10=161|8=FIX.4.2|9=63|35=0|34=73|49=EQUITY-TRADER|52=20150826-08:30:03.611|56=NASDAQ|10=146|8=FIX.4.2|9=145|35=D|34=74|49=EQUITY-TRADER|52=20150826-08:30:30.394|56=NASDAQ|11=EQUITY-TRADER-0|21=1|38=0|40=2|44=105.88|54=2|55=AAPL|60=20150826-08:30:30.379|10=129|8=FIX.4.2|9=63|35=0|34=75|49=EQUITY-TRADER|52=20150826-08:31:00.603|56=NASDAQ|10=147|8=FIX.4.2|9=63|35=0|34=76|49=EQUITY-TRADER|52=20150826-08:31:30.600|56=NASDAQ|10=148|8=FIX.4.2|9=63|35=0|34=77|49=EQUITY-TRADER|52=20150826-08:32:00.605|56=NASDAQ|10=152|8=FIX.4.2|9=63|35=0|34=78|49=EQUITY-TRADER|52=20150826-08:32:30.607|56=NASDAQ|10=158|8=FIX.4.2|9=63|35=0|34=79|49=EQUITY-TRADER|52=20150826-08:33:00.602|56=NASDAQ|10=152|8=FIX.4.2|9=63|35=0|34=80|49=EQUITY-TRADER|52=20150826-08:33:30.609|56=NASDAQ|10=154|8=FIX.4.2|9=63|35=0|34=81|49=EQUITY-TRADER|52=20150826-08:34:00.614|56=NASDAQ|10=149|8=FIX.4.2|9=63|35=0|34=82|49=EQUITY-TRADER|52=20150826-08:34:30.605|56=NASDAQ|10=153|8=FIX.4.2|9=63|35=0|34=83|49=EQUITY-TRADER|52=20150826-08:35:00.606|56=NASDAQ|10=153|8=FIX.4.2|9=63|35=0|34=84|49=EQUITY-TRADER|52=20150826-08:35:30.607|56=NASDAQ|10=158|8=FIX.4.2|9=63|35=0|34=85|49=EQUITY-TRADER|52=20150826-08:36:00.619|56=NASDAQ|10=160|8=FIX.4.2|9=63|35=0|34=86|49=EQUITY-TRADER|52=20150826-08:36:30.614|56=NASDAQ|10=159|8=FIX.4.2|9=63|35=0|34=87|49=EQUITY-TRADER|52=20150826-08:37:00.621|56=NASDAQ|10=156|8=FIX.4.2|9=63|35=0|34=88|49=EQUITY-TRADER|52=20150826-08:37:30.612|56=NASDAQ|10=160|8=FIX.4.2|9=63|35=0|34=89|49=EQUITY-TRADER|52=20150826-08:38:00.615|56=NASDAQ|10=162|8=FIX.4.2|9=63|35=0|34=90|49=EQUITY-TRADER|52=20150826-08:38:30.625|56=NASDAQ|10=158|8=FIX.4.2|9=63|35=0|34=91|49=EQUITY-TRADER|52=20150826-08:39:00.624|56=NASDAQ|10=156|8=FIX.4.2|9=63|35=0|34=92|49=EQUITY-TRADER|52=20150826-08:39:30.616|56=NASDAQ|10=161|8=FIX.4.2|9=63|35=0|34=93|49=EQUITY-TRADER|52=20150826-08:40:00.615|56=NASDAQ|10=150|8=FIX.4.2|9=63|35=0|34=94|49=EQUITY-TRADER|52=20150826-08:40:30.630|56=NASDAQ|10=151|8=FIX.4.2|9=63|35=0|34=95|49=EQUITY-TRADER|52=20150826-08:41:00.625|56=NASDAQ|10=154|8=FIX.4.2|9=63|35=0|34=96|49=EQUITY-TRADER|52=20150826-08:41:30.625|56=NASDAQ|10=158|8=FIX.4.2|9=63|35=0|34=97|49=EQUITY-TRADER|52=20150826-08:42:00.624|56=NASDAQ|10=156|8=FIX.4.2|9=63|35=0|34=98|49=EQUITY-TRADER|52=20150826-08:42:30.632|56=NASDAQ|10=159|8=FIX.4.2|9=63|35=0|34=99|49=EQUITY-TRADER|52=20150826-08:43:01.629|56=NASDAQ|10=165|8=FIX.4.2|9=64|35=0|34=100|49=EQUITY-TRADER|52=20150826-08:43:31.624|56=NASDAQ|10=195|8=FIX.4.2|9=64|35=0|34=101|49=EQUITY-TRADER|52=20150826-08:44:01.626|56=NASDAQ|10=196|8=FIX.4.2|9=64|35=0|34=102|49=EQUITY-TRADER|52=20150826-08:44:31.638|56=NASDAQ|10=203|8=FIX.4.2|9=64|35=0|34=103|49=EQUITY-TRADER|52=20150826-08:45:02.624|56=NASDAQ|10=198|8=FIX.4.2|9=64|35=0|34=104|49=EQUITY-TRADER|52=20150826-08:45:32.634|56=NASDAQ|10=203|8=FIX.4.2|9=64|35=0|34=105|49=EQUITY-TRADER|52=20150826-08:46:02.637|56=NASDAQ|10=205|8=FIX.4.2|9=64|35=0|34=106|49=EQUITY-TRADER|52=20150826-08:46:32.628|56=NASDAQ|10=209|8=FIX.4.2|9=64|35=0|34=107|49=EQUITY-TRADER|52=20150826-08:47:02.633|56=NASDAQ|10=204|8=FIX.4.2|9=64|35=0|34=108|49=EQUITY-TRADER|52=20150826-08:47:32.629|56=NASDAQ|10=213|8=FIX.4.2|9=64|35=0|34=109|49=EQUITY-TRADER|52=20150826-08:48:02.634|56=NASDAQ|10=208|8=FIX.4.2|9=64|35=0|34=110|49=EQUITY-TRADER|52=20150826-08:48:32.636|56=NASDAQ|10=205|8=FIX.4.2|9=64|35=0|34=111|49=EQUITY-TRADER|52=20150826-08:49:02.633|56=NASDAQ|10=201|8=FIX.4.2|9=64|35=0|34=112|49=EQUITY-TRADER|52=20150826-08:49:32.633|56=NASDAQ|10=205|8=FIX.4.2|9=64|35=0|34=113|49=EQUITY-TRADER|52=20150826-08:50:02.633|56=NASDAQ|10=195|8=FIX.4.2|9=64|35=0|34=114|49=EQUITY-TRADER|52=20150826-08:50:32.634|56=NASDAQ|10=200|8=FIX.4.2|9=64|35=0|34=115|49=EQUITY-TRADER|52=20150826-08:51:02.641|56=NASDAQ|10=197|8=FIX.4.2|9=64|35=0|34=116|49=EQUITY-TRADER|52=20150826-08:51:32.636|56=NASDAQ|10=205|8=FIX.4.2|9=64|35=0|34=117|49=EQUITY-TRADER|52=20150826-08:52:02.642|56=NASDAQ|10=201|8=FIX.4.2|9=64|35=0|34=118|49=EQUITY-TRADER|52=20150826-08:52:32.643|56=NASDAQ|10=206|8=FIX.4.2|9=64|35=0|34=119|49=EQUITY-TRADER|52=20150826-08:53:02.648|56=NASDAQ|10=210|8=FIX.4.2|9=64|35=0|34=120|49=EQUITY-TRADER|52=20150826-08:53:32.654|56=NASDAQ|10=202|8=FIX.4.2|9=64|35=0|34=121|49=EQUITY-TRADER|52=20150826-08:54:02.646|56=NASDAQ|10=202|8=FIX.4.2|9=64|35=0|34=122|49=EQUITY-TRADER|52=20150826-08:54:32.656|56=NASDAQ|10=207|8=FIX.4.2|9=64|35=0|34=123|49=EQUITY-TRADER|52=20150826-08:55:02.654|56=NASDAQ|10=204|8=FIX.4.2|9=64|35=0|34=124|49=EQUITY-TRADER|52=20150826-08:55:32.657|56=NASDAQ|10=211|8=FIX.4.2|9=64|35=0|34=125|49=EQUITY-TRADER|52=20150826-08:56:02.658|56=NASDAQ|10=211|8=FIX.4.2|9=64|35=0|34=126|49=EQUITY-TRADER|52=20150826-08:56:32.655|56=NASDAQ|10=212|8=FIX.4.2|9=146|35=D|34=127|49=EQUITY-TRADER|52=20150826-08:56:48.677|56=NASDAQ|11=EQUITY-TRADER-0|21=1|38=0|40=2|44=105.98|54=2|55=AAPL|60=20150826-08:56:48.677|10=217|8=FIX.4.2|9=64|35=0|34=128|49=EQUITY-TRADER|52=20150826-08:57:19.372|56=NASDAQ|10=216|8=FIX.4.2|9=64|35=0|34=129|49=EQUITY-TRADER|52=20150826-08:57:49.374|56=NASDAQ|10=222|8=FIX.4.2|9=64|35=0|34=130|49=EQUITY-TRADER|52=20150826-08:58:19.372|56=NASDAQ|10=210|8=FIX.4.2|9=64|35=0|34=131|49=EQUITY-TRADER|52=20150826-08:58:49.381|56=NASDAQ|10=214|8=FIX.4.2|9=64|35=0|34=132|49=EQUITY-TRADER|52=20150826-08:59:19.379|56=NASDAQ|10=220|8=FIX.4.2|9=64|35=0|34=133|49=EQUITY-TRADER|52=20150826-08:59:49.373|56=NASDAQ|10=218|8=FIX.4.2|9=64|35=0|34=134|49=EQUITY-TRADER|52=20150826-09:00:19.375|56=NASDAQ|10=205|8=FIX.4.2|9=64|35=0|34=135|49=EQUITY-TRADER|52=20150826-09:00:49.382|56=NASDAQ|10=207|8=FIX.4.2|9=64|35=0|34=136|49=EQUITY-TRADER|52=20150826-09:01:19.379|56=NASDAQ|10=212|8=FIX.4.2|9=64|35=0|34=137|49=EQUITY-TRADER|52=20150826-09:01:49.377|56=NASDAQ|10=214|8=FIX.4.2|9=64|35=0|34=138|49=EQUITY-TRADER|52=20150826-09:02:19.373|56=NASDAQ|10=209|8=FIX.4.2|9=64|35=0|34=139|49=EQUITY-TRADER|52=20150826-09:02:49.386|56=NASDAQ|10=217|8=FIX.4.2|9=64|35=0|34=140|49=EQUITY-TRADER|52=20150826-09:03:19.389|56=NASDAQ|10=210|8=FIX.4.2|9=64|35=0|34=141|49=EQUITY-TRADER|52=20150826-09:03:49.467|56=NASDAQ|10=211|8=FIX.4.2|9=64|35=0|34=142|49=EQUITY-TRADER|52=20150826-09:04:19.660|56=NASDAQ|10=205|8=FIX.4.2|9=64|35=0|34=143|49=EQUITY-TRADER|52=20150826-09:04:49.661|56=NASDAQ|10=210|8=FIX.4.2|9=64|35=0|34=144|49=EQUITY-TRADER|52=20150826-09:05:19.668|56=NASDAQ|10=216|8=FIX.4.2|9=64|35=0|34=145|49=EQUITY-TRADER|52=20150826-09:05:49.671|56=NASDAQ|10=214|8=FIX.4.2|9=64|35=0|34=146|49=EQUITY-TRADER|52=20150826-09:06:19.673|56=NASDAQ|10=215|