8=FIX.4.2|9=80|35=A|34=1|49=EQUITY-TRADER|52=20150826-02:44:44.531|56=NASDAQ|98=0|108=30|141=Y|10=180|8=FIX.4.2|9=144|35=D|34=2|49=EQUITY-TRADER|52=20150826-02:45:07.901|56=NASDAQ|11=EQUITY-TRADER-0|21=1|38=0|40=2|44=102.18|54=2|55=AAPL|60=20150826-02:45:07.886|10=066|8=FIX.4.2|9=62|35=0|34=3|49=EQUITY-TRADER|52=20150826-02:45:38.359|56=NASDAQ|10=107|8=FIX.4.2|9=62|35=0|34=4|49=EQUITY-TRADER|52=20150826-02:46:08.358|56=NASDAQ|10=105|