8=FIX.4.2|9=80|35=A|34=1|49=EQUITY-TRADER|52=20150825-03:01:24.678|56=NASDAQ|98=0|108=30|141=Y|10=183|8=FIX.4.2|9=62|35=0|34=2|49=EQUITY-TRADER|52=20150825-03:01:54.963|56=NASDAQ|10=097|8=FIX.4.2|9=62|35=0|34=3|49=EQUITY-TRADER|52=20150825-03:02:24.956|56=NASDAQ|10=098|8=FIX.4.2|9=62|35=0|34=4|49=EQUITY-TRADER|52=20150825-03:02:55.632|56=NASDAQ|10=094|8=FIX.4.2|9=62|35=0|34=5|49=EQUITY-TRADER|52=20150825-03:03:25.632|56=NASDAQ|10=093|8=FIX.4.2|9=62|35=0|34=6|49=EQUITY-TRADER|52=20150825-03:03:55.954|56=NASDAQ|10=104|8=FIX.4.2|9=62|35=0|34=7|49=EQUITY-TRADER|52=20150825-03:04:25.950|56=NASDAQ|10=099|8=FIX.4.2|9=62|35=0|34=8|49=EQUITY-TRADER|52=20150825-03:04:55.952|56=NASDAQ|10=105|8=FIX.4.2|9=62|35=0|34=9|49=EQUITY-TRADER|52=20150825-03:05:25.956|56=NASDAQ|10=108|8=FIX.4.2|9=63|35=0|34=10|49=EQUITY-TRADER|52=20150825-03:05:55.955|56=NASDAQ|10=151|8=FIX.4.2|9=146|35=D|34=11|49=EQUITY-TRADER|52=20150825-03:06:21.839|56=NASDAQ|11=EQUITY-TRADER-test|21=1|38=2000|40=2|44=88|54=1|55=HON|60=20150825-03:06:21.794|10=156|8=FIX.4.2|9=146|35=D|34=12|49=EQUITY-TRADER|52=20150825-03:06:21.850|56=NASDAQ|11=EQUITY-TRADER-test|21=1|38=2000|40=2|44=88|54=1|55=HON|60=20150825-03:06:21.850|10=143|8=FIX.4.2|9=63|35=0|34=13|49=EQUITY-TRADER|52=20150825-03:06:51.954|56=NASDAQ|10=150|8=FIX.4.2|9=63|35=0|34=14|49=EQUITY-TRADER|52=20150825-03:07:21.954|56=NASDAQ|10=149|8=FIX.4.2|9=63|35=0|34=15|49=EQUITY-TRADER|52=20150825-03:07:51.961|56=NASDAQ|10=151|8=FIX.4.2|9=63|35=0|34=16|49=EQUITY-TRADER|52=20150825-03:08:22.634|56=NASDAQ|10=148|8=FIX.4.2|9=63|35=0|34=17|49=EQUITY-TRADER|52=20150825-03:08:52.955|56=NASDAQ|10=158|8=FIX.4.2|9=63|35=0|34=18|49=EQUITY-TRADER|52=20150825-03:09:22.961|56=NASDAQ|10=154|8=FIX.4.2|9=63|35=0|34=19|49=EQUITY-TRADER|52=20150825-03:09:52.957|56=NASDAQ|10=163|8=FIX.4.2|9=63|35=0|34=20|49=EQUITY-TRADER|52=20150825-03:10:22.962|56=NASDAQ|10=140|8=FIX.4.2|9=63|35=0|34=21|49=EQUITY-TRADER|52=20150825-03:10:52.961|56=NASDAQ|10=143|8=FIX.4.2|9=63|35=0|34=22|49=EQUITY-TRADER|52=20150825-03:11:22.956|56=NASDAQ|10=146|8=FIX.4.2|9=63|35=0|34=23|49=EQUITY-TRADER|52=20150825-03:11:52.962|56=NASDAQ|10=147|8=FIX.4.2|9=63|35=0|34=24|49=EQUITY-TRADER|52=20150825-03:12:22.966|56=NASDAQ|10=150|8=FIX.4.2|9=63|35=0|34=25|49=EQUITY-TRADER|52=20150825-03:12:53.624|56=NASDAQ|10=146|8=FIX.4.2|9=146|35=D|34=26|49=EQUITY-TRADER|52=20150825-03:13:03.809|56=NASDAQ|11=EQUITY-TRADER-rell|21=1|38=2000|40=2|44=88|54=1|55=HON|60=20150825-03:13:03.809|10=135|8=FIX.4.2|9=63|35=0|34=27|49=EQUITY-TRADER|52=20150825-03:13:33.953|56=NASDAQ|10=152|8=FIX.4.2|9=63|35=0|34=28|49=EQUITY-TRADER|52=20150825-03:14:03.958|56=NASDAQ|10=156|8=FIX.4.2|9=63|35=0|34=29|49=EQUITY-TRADER|52=20150825-03:14:33.965|56=NASDAQ|10=158|8=FIX.4.2|9=63|35=0|34=30|49=EQUITY-TRADER|52=20150825-03:15:03.956|56=NASDAQ|10=148|8=FIX.4.2|9=63|35=0|34=31|49=EQUITY-TRADER|52=20150825-03:15:33.952|56=NASDAQ|10=148|8=FIX.4.2|9=63|35=0|34=32|49=EQUITY-TRADER|52=20150825-03:16:03.961|56=NASDAQ|10=147|8=FIX.4.2|9=63|35=0|34=33|49=EQUITY-TRADER|52=20150825-03:16:33.962|56=NASDAQ|10=152|8=FIX.4.2|9=63|35=0|34=34|49=EQUITY-TRADER|52=20150825-03:17:03.956|56=NASDAQ|10=154|8=FIX.4.2|9=63|35=0|34=35|49=EQUITY-TRADER|52=20150825-03:17:33.963|56=NASDAQ|10=156|8=FIX.4.2|9=63|35=0|34=36|49=EQUITY-TRADER|52=20150825-03:18:04.640|56=NASDAQ|10=148|8=FIX.4.2|9=63|35=0|34=37|49=EQUITY-TRADER|52=20150825-03:18:34.955|56=NASDAQ|10=161|8=FIX.4.2|9=63|35=0|34=38|49=EQUITY-TRADER|52=20150825-03:19:04.964|56=NASDAQ|10=160|8=FIX.4.2|9=63|35=0|34=39|49=EQUITY-TRADER|52=20150825-03:19:34.968|56=NASDAQ|10=168|8=FIX.4.2|9=63|35=0|34=40|49=EQUITY-TRADER|52=20150825-03:20:04.968|56=NASDAQ|10=149|8=FIX.4.2|9=63|35=0|34=41|49=EQUITY-TRADER|52=20150825-03:20:34.966|56=NASDAQ|10=151|8=FIX.4.2|9=63|35=0|34=42|49=EQUITY-TRADER|52=20150825-03:21:04.962|56=NASDAQ|10=146|8=FIX.4.2|9=63|35=0|34=43|49=EQUITY-TRADER|52=20150825-03:21:34.961|56=NASDAQ|10=149|8=FIX.4.2|9=63|35=0|34=44|49=EQUITY-TRADER|52=20150825-03:22:04.965|56=NASDAQ|10=152|8=FIX.4.2|9=63|35=0|34=45|49=EQUITY-TRADER|52=20150825-03:22:34.968|56=NASDAQ|10=159|8=FIX.4.2|9=63|35=0|34=46|49=EQUITY-TRADER|52=20150825-03:23:04.970|56=NASDAQ|10=151|8=FIX.4.2|9=63|35=0|34=47|49=EQUITY-TRADER|52=20150825-03:23:34.962|56=NASDAQ|10=156|8=FIX.4.2|9=63|35=0|34=48|49=EQUITY-TRADER|52=20150825-03:24:04.959|56=NASDAQ|10=161|8=FIX.4.2|9=63|35=0|34=49|49=EQUITY-TRADER|52=20150825-03:24:34.970|56=NASDAQ|10=158|8=FIX.4.2|9=63|35=0|34=50|49=EQUITY-TRADER|52=20150825-03:25:04.961|56=NASDAQ|10=148|8=FIX.4.2|9=63|35=0|34=51|49=EQUITY-TRADER|52=20150825-03:25:34.969|56=NASDAQ|10=160|8=FIX.4.2|9=63|35=0|34=52|49=EQUITY-TRADER|52=20150825-03:26:04.971|56=NASDAQ|10=152|8=FIX.4.2|9=63|35=0|34=53|49=EQUITY-TRADER|52=20150825-03:26:34.967|56=NASDAQ|10=161|8=FIX.4.2|9=63|35=0|34=54|49=EQUITY-TRADER|52=20150825-03:27:04.973|56=NASDAQ|10=157|8=FIX.4.2|9=63|35=0|34=55|49=EQUITY-TRADER|52=20150825-03:27:34.975|56=NASDAQ|10=163|8=FIX.4.2|9=63|35=0|34=56|49=EQUITY-TRADER|52=20150825-03:28:04.966|56=NASDAQ|10=162|8=FIX.4.2|9=63|35=0|34=57|49=EQUITY-TRADER|52=20150825-03:28:34.962|56=NASDAQ|10=162|8=FIX.4.2|9=63|35=0|34=58|49=EQUITY-TRADER|52=20150825-03:29:04.962|56=NASDAQ|10=161|